:020000040002F8
:10600000206D0020C1630200C9630200CB6302005F
:10601000CD630200CF630200D163020000000000E4
:10602000000000000000000000000000D363020038
:10603000D563020000000000D7630200D1690200AE
:1060400099680200DB630200416D0200DB6302001D
:1060500075690200DB630200D1660200DB630200A7
:10606000DB630200DB630200DB630200DB63020030
:10607000DB630200DB630200DB630200DB63020020
:10608000DB630200F1680200DB630200DB630200F5
:10609000C9690200DB630200CD690200DB63020014
:1060A000DB630200DB630200DB630200DB630200F0
:1060B000DB630200DB630200000000000000000060
:1060C000DB630200DB630200DB630200DB630200D0
:1060D000DB630200DB630200DB6302000000000000
:1060E00000000000000000000000000000000000B0
:1060F00000000000000000000000000000000000A0
:10610000000000000000000000000000000000008F
:10611000000000000000000000000000000000007F
:10612000000000000000000000000000000000006F
:10613000000000000000000000000000000000005F
:10614000000000000000000000000000000000004F
:10615000000000000000000000000000000000003F
:10616000000000000000000000000000000000002F
:10617000000000000000000000000000000000001F
:10618000000000000000000000000000000000000F
:1061900000000000000000000000000000000000FF
:1061A00000000000000000000000000000000000EF
:1061B00000000000000000000000000000000000DF
:1061C00000000000000000000000000000000000CF
:1061D00000000000000000000000000000000000BF
:1061E00000000000000000000000000000000000AF
:1061F000000000000000000000000000000000009F
:10620000DFF80CD000F0CAF900480047A59402005E
:10621000206D002030B450E8012F93B2C48923448C
:106220008489A34228BF1B1B0489A34202BFBFF37A
:106230002F8F002007E0C3EA020340E80134002C5E
:10624000E9D14FF001000A6030BC704750E8012FDF
:10625000C2EA024240E801210029F7D1704730B478
:1062600050E8022F1FFAA2F3C488A34202BFBFF373
:106270002F8F00200DE0C48923448489A34228BFC6
:106280001B1BC2EA034340E80234002CE8D14FF064
:1062900001000A6030BC704750E8022FC2EA224277
:1062A00040E802210029F7D17047034653E8022F46
:1062B000D988B2EB324F4FF0000017BF92B241EADB
:1062C000014142EA014104E05A68B2EB324F08BF93
:1062D000012043E80212002AE8D1704730B4044696
:1062E00054E8000F0D4644E80053002BF8D1156028
:1062F00030BC704730B4044654E8000F40EA010552
:1063000044E80053002BF7D1156030BC704730B41F
:10631000044654E8000F00EA010544E80053002B4E
:10632000F7D1156030BC704730B4044654E8000F14
:1063300080EA010544E80053002BF7D1156030BC1A
:10634000704730B4044654E8000F00EB010544E800
:106350000053002BF7D1156030BC704730B40446B1
:1063600054E8000FA0EB010544E80053002BF7D1DF
:10637000156030BC704770B404464FF0000054E81C
:10638000006F0D68AE4207BF44E80023012044E8D7
:1063900000630E60002B1CBF0020F0E770BC70474C
:1063A00030B4044654E8000F88422CBF451A054615
:1063B00044E80053002BF5D1156030BC7047000055
:1063C0000648804706480047FEE7FEE7FEE7FEE78F
:1063D000FEE7FEE7FEE7FEE7FEE7FEE7116A0200E2
:1063E000016202002DE9F05F0546002092469B46BF
:1063F00088460646814640241BE0284641464746DB
:10640000224600F082F853465A46C01A914110D3F2
:1064100011461846224600F016F82D1A67EB0108BF
:106420004F4622460120002100F00DF817EB00092D
:106430004E41201EA4F10104DFDC484631462A46C5
:106440004346BDE8F09F202A04DB203A00FA02F11F
:10645000002070479140C2F1200320FA03F3194352
:106460009040704700487047D0D2020040EA0103D4
:106470009B0703D009E008C9121F08C0042AFAD2FA
:1064800003E011F8013B00F8013B521EF9D27047BE
:10649000D2B201E000F8012B491EFBD27047002266
:1064A000F6E710B513460A4604461946FFF7F0FF13
:1064B000204610BD421C10F8011B0029FBD1801A98
:1064C000704710B5002200E0521C835C8C5CA34234
:1064D00001D1002BF8D1D8B2E1B2401A10BD034669
:1064E00011F8012B00F8012B002AF9D1184670474A
:1064F00070B5064600F0C0FC046805460A2200217B
:10650000304600F012F82C6070BD202A04DB203ADF
:1065100021FA02F00021704721FA02F3D040C2F1C3
:10652000200291400843194670472DE9F0479146F3
:106530000F4680460446002614F8015B2DB1FFF794
:1065400091FF0068405DC007F6D12B2D02D02D2DA4
:1065500018D0641E4A463946204600F031F827B16B
:106560003968A14201D1C7F8008071054FF00204DB
:106570000BD54042002803DD00F07EFC0460A0073C
:10658000BDE8F08746F48066E4E70028F8DA00F01A
:1065900073FC04606FF00040F2E70000064C074D0A
:1065A00006E0E06840F0010394E8070098471034E3
:1065B000AC42F6D3FFF728FE4CDA02006CDA020098
:1065C0002DE9F05F82460078002715468B460AF1D8
:1065D0000104B946302801D09DB113E014F8010B35
:1065E0000127782803D0582801D045B10AE00DB121
:1065F000102D07D10027102514F8010B02E0082503
:1066000000E00A250026B0460EE005FB080005FB69
:1066100006F1012701EB10461FFA80F8B6F5803F1E
:1066200000D3B94614F8010B294600F018F80028E9
:10663000EBDABBF1000F05D00FB1641E00E0544649
:10664000CBF80040B9F1000F06D000F015FC022194
:106650000160C81EBDE8F09F48EA0640FAE73A2804
:1066600000D2303820F02002412A01D3A2F13700B5
:10667000884201D34FF0FF30704770B58C1810F886
:10668000015B15F0070301D110F8013B2A1106D177
:1066900010F8012B03E010F8016B01F8016B5B1E91
:1066A000F9D12B0705D40023521E0DD401F8013B6C
:1066B000FAE710F8013BCB1A921C03E013F8015BD8
:1066C00001F8015B521EF9D5A142D8D3002070BD5C
:1066D0002DE9F04700268AB0DFF85091B0464FF41C
:1066E0008075012437460696284603F023FE38B10C
:1066F000D9F80403204203D0284603F011FE2643B4
:106700002D1D64007F1CADB2082FEDD34FF4BE7475
:10671000204603F00FFE48B1204603F001FE46F08C
:10672000004606AA0121002003F0E6FD404D16F0C8
:10673000FF0F15D00127002437420DD009EB84014B
:10674000D1F81005D1F81015C0F3042055F8242015
:10675000C1F3014102B190477F00641C082CEBD3C8
:10676000002E5FDA4FF0FF30CDF8108054E028198A
:1067700010F8507F90F9000027F0C008401C3BD073
:1067800007A9404603F040F910B34FEA9719404675
:1067900002F040F855F820701FB1B9F1030F03D093
:1067A00006E0B9F1030F27D104A9404603F034F9FC
:1067B0004FF0A04101EB8800D0F8000706A9C0F314
:1067C000014A404603F020F918B1BAF1020F03D094
:1067D00012E0BAF1030F0FD1B9F1030F08D1BAF1EA
:1067E000020F1DD00221404603F050FD761CF6B288
:1067F00017B149464046B847641C042CB7D3002E55
:1068000010D06A460121002003F076FD0699009819
:10681000884207D006900498002634460790A6E7E1
:106820000321E0E70AB0BDE8F08700000060004007
:10683000C042002000F01F02012191404009800069
:1068400000F1E020C0F88012704700F01F02012123
:1068500091404009800000F1E020C0F8001170472D
:1068600000F01F02012191404009800000F1E0206A
:10687000C0F8001270474907090E002806DA00F038
:106880000F0000F1E02080F8141D704700F1E020B7
:1068900080F800147047000070B54FF480763046E1
:1068A00003F0FEF9114CB50560B1304603F0FFF975
:1068B0000120C5F80803607920B9012060712168C2
:1068C000002088474FF48276304603F0E9F900282B
:1068D0000AD0304603F0EBF90220C5F8080321681E
:1068E000BDE870400120084770BD0000242C002046
:1068F00007480021C0F84011C0F84411C0F8481101
:10690000C0F84C11C0F80011C0F8041105F02CBFFC
:106910000010014000F01ABA70B50E46144900EBA1
:10692000400001EBC0051446E86A183520B1012883
:106930000FD0022805D113E0284600F03BFAA04210
:1069400001D2002411E022463146284600F06AFABE
:106950000BE0284600F02EFAA042F4D20446F2E7FB
:106960003146284600F031FA0446204670BD00004A
:10697000944A0020F8B54FF040200446114E4FF4E1
:106980008C7104F0C8FA00281AD00025C4F81851F8
:10699000D4F818010090F07F3446FF2806D0A17F7C
:1069A00011B103F084FC01E003F088FC65772572E7
:1069B000D4E9002101B004F10800BDE8F04010471F
:1069C000F8BD00005441002005F01CBE04F038BAA8
:1069D00000F0ACB90C4810B5D0F800104FF47A7242
:1069E0004FF08074B1FBF2F0431EA342FAD24FF095
:1069F000E021401E4861054AE02082F8140D002085
:106A000088610720086110BD142D00200FE000E010
:106A1000F0B5B5480023021D0178101D01254FF087
:106A2000805406290BD11678360708D10678C6F3AC
:106A30000316032E06D0042E04D0052E02D00629FC
:106A400007D00EE0B4F82463A84FC6F304263E60D6
:106A500002E01678360704D10678C6F30316032E33
:106A600002D0062904D00FE0A24FA14E7E670EE0AF
:106A70001678360708D10678C6F30316032E06D01B
:106A8000042E04D0052E02D0062907D00EE0D4F83B
:106A90004462994FC6F342363E6002E016783607EC
:106AA00004D10678C6F30316032E02D0062906D0B9
:106AB00011E0924E376827F0807737600EE0167845
:106AC000360708D10678C6F30316032E06D0042E27
:106AD00004D0052E02D006290AD011E04FF08046DE
:106AE000C6F80C31C6F81031834E361F336002E011
:106AF0001678360704D10678C6F30316032E02D0A3
:106B0000062905D00CE07C4F032664373E600AE07E
:106B10001678360704D10678C6F30316032E02D082
:106B200006290DD014E0764F05263E60744E783667
:106B30003560734E083633603F263F1D3E6002E0ED
:106B40001678360704D10678C6F30316052E02D050
:106B5000062957D062E06B4E36686B4F3E60694E37
:106B6000361D36683F1D3E60664E083636683F1D4E
:106B70003E60644E0C3636683F1D3E60614E1036F6
:106B800036683F1D3E605F4E143636683F1D3E60DE
:106B90005C4E183636685C4F20373E60594E1C36C6
:106BA00036683F1D3E60574E203636683F1D3E60BA
:106BB000544E243636683F1D3E60524E28363668A5
:106BC0003F1D3E604F4E2C3636683F1D3E604D4E99
:106BD000303636684C4F40373E604A4E3436366861
:106BE0003F1D3E60474E383636683F1D3E60454E7D
:106BF0003C3636683F1D3E60424E403636683F1D8B
:106C00003E6002E01678360708D10678C6F3031610
:106C1000032E06D0042E04D0052E02D0062907D05C
:106C200019E0D4F85812394A01F04F01116002E01E
:106C3000117809070FD10078C0F30310032803D09F
:106C4000042801D0052806D131480168C90702D0BF
:106C50006FF001010160D4F83001062808D1D4F8A2
:106C60003401062804D12B48016841F48061016099
:106C700022487438016841F470010160BFF34F8FFE
:106C8000BFF36F8F4FF01021D1F80002002803DB13
:106C9000D1F80402002822DA1F4A15601F48046850
:106CA000002CFCD01524C1F800420568002DFCD052
:106CB000C1F8044201680029FCD013600168002972
:106CC000FCD0BFF34F8F0D48F0380168144A01F42F
:106CD000E06111430160BFF34F8F00BFFDE7124930
:106CE00010480860F0BD0000E00F00F040350140A2
:106CF0000DF0ADBA00C007403C050040FCED00E0DF
:106D0000105600400404001020C50040E40E00406E
:106D1000000400403C17004004E5014000E401404D
:106D20000400FA050090D003142D002003480168E8
:106D3000002902D00168491E01607047D82A00204E
:106D400001480068004700002C2C002010B5124CB0
:106D500002202061606111A0A06104F17800E0616F
:106D60004FF4007020620020A06260620BA1A16459
:106D7000E06204F51E71E1641021A065C4E91410FD
:106D8000E06509A1E01DFFF7AAFB08A12046FFF777
:106D9000A6FB2020A07110BD944A00205465726D9E
:106DA000696E616C0000000052545400534547471F
:106DB000455200000269C1688A4203D88068401ABF
:106DC000104400E0501A401E70472DE9F047C46897
:106DD0001746894606464FF000083069A04201D99F
:106DE000051B02E0B168201A0D1AB0686D1E001B69
:106DF000A84200D80546BD4200D33D4670682A46E9
:106E000020444946FFF732FBB0687F1B2C44A8445E
:106E1000A944A04200D10024F460002FDDD14046F7
:106E2000BDE8F0872DE9F04104468846D4E9020721
:106E3000C51BE168606816460844B54206D941465C
:106E4000FFF714FBB819E060BDE8F0812A4641461F
:106E5000FFF70CFB761B08EB050132466068FFF775
:106E600005FBE660F0E70000014A024900F035B892
:106E7000BF8C0200AC2C002000487047182D002069
:106E800002E008C8121F08C1002AFAD170477047F3
:106E9000002001E001C1121F002AFBD17047000051
:106EA0000121202803DA81400548014003E0402801
:106EB00002DA2038814009B1012070470020704774
:106EC000FC06FFBD082806D228B1012803D00428FB
:106ED00001D001207047002070472DE9F04116468F
:106EE0000F460446002503E03946B047641C6D1C7C
:106EF00020780028F8D12846BDE8F08110B501229D
:106F00000221002001F096FA08B1072810D10722CB
:106F10000221012001F08EFA08B1072808D10021D2
:106F20000A22084601F086FA08B1072800D100209D
:106F300010BD022001F088B9F8B500240A4E25469C
:106F400006EBC411002380220848009505F084FA5E
:106F5000641CE4B2022CF3D3002308220449034842
:106F6000009505F079FAF8BDF43F002030CF02001B
:106F7000F440002070B50024064D06E06868012149
:106F800010F8340004F04AF8641C28788442F5D3E1
:106F9000002070BD382C0020F8B515460C4606467A
:106FA000052A01D20720F8BD04F034F918B904F01D
:106FB000F9F80028F7D1124900224E600C708D605C
:106FC000C1E90422C1E906220E4D0DE006EBC40022
:106FD0002968009181788DF8011000780A4A694685
:106FE00004F06EF80028DED1641EE4B2EED2BDE8F3
:106FF000F84004480021054A001D00F07BB800005D
:10700000382C0020CCCF0200518D0200318B0200C1
:1070100072B603F017FC00BF03F056FA0028FBD14C
:10702000104C0121208801EB00400FA103F05CFB14
:1070300010480068C00700D000BE2088022101EB84
:1070400000400DA103F050FBBFF34F8F0948E43817
:1070500001680D4A01F4E06111430160BFF34F8FF5
:1070600000BFFDE7502D0020466174616C20657201
:10707000726F7200F0ED00E053797374656D2072E9
:1070800065736574000000000400FA050EB5002168
:107090000091CDE901106A4644F20100FFF7B8FF04
:1070A0000EBD10B58268C368934203D001F0E0FDC5
:1070B000002010BD052010BD29B112B1531E13428E
:1070C00003D0092070470E207047016083800021A3
:1070D0008160C1600846704710B58268C3689A1A1B
:1070E00083889A4203D801F0CDFD002010BD042012
:1070F00010BD0000084B9B7823B12AB120B1006875
:10710000037C1BB1082070470720704700230374DD
:1071100041744261184670478C43002070B504F0FA
:10712000BBFE104800240B21047044700E4D81708A
:1071300014206C602C706C70FFF77CFB072114200E
:10714000FFF799FB1420FFF780FB08480460072134
:107150001120FFF790FB0548001F0068A860002081
:1071600070BD00008C430020582C00200815014001
:107170002DE9FC47DFF8789099F8023073B368B3D3
:10718000052902D20720BDE8FC87436933B3437C5D
:10719000012B25D0002704460025884616468DF889
:1071A0000050684600F0CEF801A805F019FEC8B1FD
:1071B000012101700F4944600968C0E90218C0E963
:1071C00004769DF8040089F801009DF8000000F0A5
:1071D000DDF81420FFF744FB2846D4E70820D2E767
:1071E0000F46D8E704259DF8000000F0CFF8F3E73C
:1071F0008C430020041501400649897839B130B12B
:10720000416921B100210174022105F089BA0820E9
:10721000704700008C43002070B50A4E01460A48B2
:10722000B578FFF73EFF04464DB10020B070711CE9
:107230000122C81D02F0E4FD08B1FFF727FF204638
:1072400070BD00006C2C002098440020F0B5244E46
:1072500089B01F460D00044672603FD0A888296897
:1072600082B22048FFF728FF002835D1A889A968F5
:1072700082B21C481030FFF71FFF00282CD12022BB
:1072800019496846FFF7F2F860690690207C00B162
:1072900001208DF814008DF81C70607C00B10E2068
:1072A0008DF81500E0680290A068039020680190B6
:1072B000606800900A480D4A6946083002F06CFD8B
:1072C000002809D1B0702068401C05D00449012273
:1072D000491CC81D02F094FD09B0F0BD0720FBE772
:1072E0006C2C002098440020E8CF020061C9020005
:1072F00010B501461048FFF7EFFE040019D10F4802
:107300000F4A0178515C19B1001D04F007FB02E03F
:107310000C3004F0EBF960B9084907480839FFF769
:10732000C0FE30B9054901220839044802F078FD51
:107330000446204610BD0000A8440020742C002004
:10734000182C002030B5EFF3108172B60D4A946806
:10735000012324B10370002900D162B630BD9360CF
:107360004FF0E023D3F88051074C25401560C3F857
:107370008041D3F8844154605A17C3F88421002215
:107380000270E8E7B8440020FC06FFBD0B498A689C
:10739000002A11D000280FD1EFF3108072B60B68CD
:1073A0004FF0E022C2F800314B68C2F804310022ED
:1073B0008A60002800D162B670470000B8440020FF
:1073C0002DE9F041064608680C46411C4FF0A047E5
:1073D0004FF0010506D005FA00F1C7F8081520683E
:1073E00002F040FF6068411C02D0002102F01EFF45
:1073F0003168A069C1F82405607D227D31681043A1
:10740000C1F86C05D4E900123068C0F81425C0F842
:107410000C15207D012815D1A068411C02D0002147
:1074200002F004FFE068411C05D08540C7F808550C
:10743000E06802F017FFD4E902123068C0F80825AE
:10744000C0F81015BDE8F0812DE9F0410646086846
:107450000C46411C4FF0A0474FF0010506D005FA3D
:1074600000F1C7F80815206802F006FF6068411CAB
:1074700002D0002102F0E3FE3168A069C1F82405C2
:10748000607D217D32680843C2F86C05D4E90012A2
:107490003068C0F80C15C0F81425207D012815D1DE
:1074A000A068411C02D0002102F0C9FEE068411C26
:1074B00005D08540C7F80855E06802F0DDFED4E944
:1074C00002123068C0F80825C0F81015BDE8F08138
:1074D00070B5164C00680025A06004F1080014A1E6
:1074E0000571FEF7EEFF98B113A104F10800FEF755
:1074F000E8FF78B112A104F10800FEF7E2FF80B1C5
:1075000011A104F10800FEF7DCFF60B1257070BD29
:10751000012004E00F210EA004F0ECFD02202070F9
:1075200070BD0320FBE70420F9E70000E82A0020F3
:1075300044524742000000005445585400000000E7
:107540005241494E000000004F46464600000000F0
:107550000D0A535441525420494E4954530D0A00C8
:1075600010B504F07DFEBDE81040FFF7E5BC00005B
:1075700010B5084C2178032908D2DFE801F0070292
:107580000500FFF7EDFF01E000F006F80020207095
:1075900010BD0000E82A00202DE9FE430446244DDA
:1075A00022484FF4FA6768606179E37822798DE8C0
:1075B0000E00B846064623786278A17804F088FE6B
:1075C000FFF7BAFC384601F0ABFA002718E0E019E3
:1075D000807901F027F91549E83901EBC0006860AE
:1075E0006179E37822798DE80E0023786278A178BA
:1075F00004F06EFEFFF7A0FC404601F091FA7F1CFC
:10760000A01DFEF757FFB842E1D86E606179E378BC
:1076100022798DE80E00304623786278A17804F054
:1076200057FEBDE8FE43FFF787BC0000DD2B0020BE
:10763000E82A002070B51500044609D00020286013
:1076400034B1206820B1A079800703D0072070BD35
:107650000E2070BD084600F037FBC0B2142804D0DD
:107660002179814203D8042070BD052070BDE288D5
:10767000216800FB02102860002070BD2DE9FC4746
:10768000002517880646158090F82D001446894677
:1076900030B13A462146484600F02AFB051E09D182
:1076A000B0784FF00C0A18B32088C846001DB842C5
:1076B00002D95046BDE8FC87684679DF0028F9D139
:1076C0002088032108F8001020881921401C80B26E
:1076D000208008F800102088401C80B2208000EB39
:1076E0000801BDF8000005F0C9FA2188084420808F
:1076F000F0780222C8B1218896F9033001F1030C19
:107700004846BC45D5D8425421884FF0010C491C4D
:1077100089B2218000F801C02188491C89B22180EA
:1077200009F801302088401C20807068B8B1218899
:1077300090F9003001F1030C4846BC45B9D84254D9
:1077400021880A22491C89B2218042542188491C7F
:1077500089B2218009F801302088401C20803089BE
:1077600050B1CDE900474B460622022106F1080040
:1077700005F04EFB051E9DD1308A50B1CDE9004782
:107780004B460722032106F1100005F041FB051EC0
:1077900090D1308B50B1CDE900474B4615221421D2
:1077A00006F1180005F034FB051E83D1306A30B1B4
:1077B0003B462246494601F0EAF8051EDBD1706AD5
:1077C00030B13B462246494601F09AFF051ED2D110
:1077D00096F82C0038B13B4622464946304604F024
:1077E000EBFC051EC7D1307838B13B4622464946EE
:1077F000304602F00BF8051EBDD128465AE718B5F1
:1078000004460020ADF8000013466A46204600F00A
:1078100006F8002802D0BDF80000204418BD70B55D
:1078200088B182B10024158803E0065D641C3444ED
:10783000A4B2A54203D8061976789E4201D08C42A4
:10784000F3D38C4201D3002070BDA11C1180005DD8
:10785000401E80B270BD80F8301070472DE9F041B5
:107860000D00044606D02CB195F87A0000260128B8
:1078700003D006E00E20BDE8F08195F898000128BD
:1078800029D0D5F8A000042825D0D5F89C000428DC
:1078900021D04FF00108A6702C2205F17801201D9F
:1078A000FEF7E4FD84F83060D5F8A4006063D5F8F5
:1078B000A800A0634FF6FF70A4F8A80004F194009C
:1078C000C4F8A400C4F8AA60A4F8AE6084F8B0605C
:1078D000207810B104E00720CDE7FF2084F85400A1
:1078E00004F155011F27C4F89410A4F8987004F10E
:1078F00098022846FFF7C2FE0028BCD115F13C0FC4
:107900000ED004F17401C4F89C10A4F8A07004F126
:10791000A00205F13C00FFF7B1FE0028ABD103E067
:10792000C4F89C60A4F8A06084F85180208BA4F86F
:10793000480084F83C80266484F850606069606484
:10794000454604F13C02002104F1540072DF002896
:1079500091D125708FE710B50288102A1BD0112A0B
:1079600020D0262A1DD1007A0C46012801D00228F9
:1079700017D1A0780521401CB0FBF1F201FB1201E8
:10798000204600F052F800280BD0A16B002908D047
:10799000BDE810400847C27B012A02D18088A1F8C7
:1079A000A80010BD0C46002184F8B2108088B4F8FD
:1079B000A8108842F5D120790028F2D10121DFE713
:1079C00010B50C46022801D0032810D16078002899
:1079D0000DD000206070A178204600F026F8002825
:1079E00005D0A16B002902D0BDE81040084710BDAA
:1079F00010B5044690F8540074DF012084F8B200FA
:107A0000002084F8B40084F850000621204601F0DC
:107A100042F9002808D1A178204600F006F810B1FC
:107A2000A16B01B18847002010BD2DE9F05F04462D
:107A300000780F4638B1A770002002F007FB01263E
:107A400020B1667007E10820BDE8F09F0025C4F86A
:107A5000AA50A4F8AE5084F8B050A07910B1A07824
:107A6000012806D0E07968B1A078012801D0022869
:107A700008D1616B21B184F8B1600820884701E02A
:107A800084F8B15004F1AB0100200A5C0AB1304621
:107A900003E0401C0628F8D300204FF002084FF006
:107AA000030B012F06D0022F0CD0032F0FD0042F71
:107AB00015D110E0A17929B194F8241011B908B1B9
:107AC00030460DE0E17911B108B1404608E0207A76
:107AD00008B1584604E0607A08B1042000E0284666
:107AE000A070616B41B1032801D0042804D16079F2
:107AF00010B194F8B200A0B184F8B35004F13C0086
:107B000018210746FEF7CBFC04F12C0084F83C60FA
:107B1000814604F0CFF858B194F82C0084F8510055
:107B200008E084F8B45084F8B36007208847E5E79C
:107B300084F8516094F8240050B1484604F0BAF833
:107B400020B194F8280084F8520001E084F85260D3
:107B500084F85050A27804F1AA0104F194094FF07E
:107B6000060A052A60D2DFE802F078030F223F0000
:107B700084F83160C4F8A450C4E9101584F83C803E
:107B80008020A4F8480051E084F8318094F8242043
:107B9000384612B10722027001E080F800B0228A54
:107BA0008281C4F8A4504160E168B9603EE0606938
:107BB000B860208BB88194F824003D4610B184F859
:107BC0003CA001E084F83C60204605F0EBF840B1B1
:107BD00085F814800421204601F05DF820BB0521C2
:107BE0001EE084F831B01DE0E069B860208CB881F7
:107BF00094F824003D4610B184F83CA001E084F8DC
:107C00003C60204605F0CEF848B185F81480042188
:107C1000204601F040F838B984F831A002E0042190
:107C200084F83110C4F8A490A07878B13A4604F1F1
:107C30005400D4F8A41072DF00287FF405AF94F844
:107C4000301094F8540073DF0028F6D1616B11B145
:107C500094F8310088470020F6E684F83150F5E7C3
:107C600070B5040012D001461C221448FEF7FEFB3A
:107C70001248134D0560206850B17ADF002806D104
:107C80002068016829604068686005E00E2070BDCA
:107C90000B487BDF0028FAD108484FF6FF711438F3
:107CA000084A20F8041B0549343901600021FFF718
:107CB00021FA0028EBD0032070BD000018420020FC
:107CC000102C00203DCD020010B5044600F006F84F
:107CD00008B1204610BD142010BD0000142801D3A7
:107CE000002070470146014801F0FFBD38420020E6
:107CF0007CB5054608880C460930904201D90C2015
:107D00007CBD68466DDF0028FAD1218808206854C0
:107D100020881B21401C80B2208029542088401CD0
:107D200080B220802844DDF801100160BDF8051004
:107D300081802088801D80B220809DF80010490835
:107D400000D0012129542088401C208000207CBDC7
:107D5000F8B5294D028804466E88212A37D011DCF7
:107D600026484FF00301102A008801EB004013D091
:107D7000112A25D0132A29D100231A4685213046FD
:107D80007FDF17E03B2A32D0522A2AD0562A1DD153
:107D90008088132176DF0DE019A102F0A5FC0720F1
:107DA00000F06AFB08B1FFF771F9A18869801748F4
:107DB00001F0FEFE002809D0BDE8F840FFF766B9E3
:107DC00013A102F091FC4FF6FF706880F8BD00200F
:107DD0000090A08869468FDF0028F7D0FFF756F99A
:107DE000F8BD00231A4619463046B1DFE2E7808825
:107DF000132176DFDEE70000A02A0020502D0020AE
:107E0000436F6E6E6563746564000000303F002050
:107E1000446973636F6E6E6563746564000000008F
:107E200010B51A4C0188606810290ED011292BD189
:107E3000401E606028D1FFF761F8002824D0216837
:107E4000002921D0BDE810400847D0B90021012207
:107E5000084600F0EFFA08B107280FD107220221E7
:107E6000012000F0E7FA08B1072807D10422022117
:107E7000002000F0DFFA20B1072802D0216801B10C
:107E800088476068401C606010BD0000082C00201E
:107E90002DE9F04701883B4E40F2F3194FF6FF758C
:107EA00010291BD011293ED0122954D0502946D177
:107EB000C188F289841D914241D1618902293ED154
:107EC0008688304600F0A8FF050038D004F10C0089
:107ED00000F076F9A8B3294630464EE0C17B87888A
:107EE000044601292BD1A846284600F095FF05003D
:107EF00017D02F8000202872234843464A46016845
:107F0000C5F80A104068C5F80E0004F1100105F12B
:107F10000A0001F045F86872F08900280FD129465F
:107F20002AE0042013E0808800F076FF040006D0E9
:107F30006068FFF761F908B104F0D4F82580BDE866
:107F4000F087FFE76868FFF757F90028F7D0BDE82A
:107F5000F04704F0C7B887880646384600F05CFF53
:107F60000400ECD02B464A4606F1080104F10A0051
:107F700001F016F8607221463846BDE8F04700F07F
:107F80004DBD000018420020102C00202DE9F04FBC
:107F90000746858802883D48012197B08346102A0C
:107FA00009D0112A49D01A2A6CD1387AB1EB101FA6
:107FB00045D2012244E0354C083CA068C0430B90F8
:107FC00061680BA801F0B2FC0B990CA800F0C0FC92
:107FD0002C220CA96846FEF749FA0026E946A0467D
:107FE00010E000BF09EB46005FF00004B0F804A009
:107FF00008EB84005146001D01F06CFC641C1D2C34
:10800000F6D3761C0098B042ECD8142D05D317B0E7
:108010000420BDE8F04FFFF739B82946584601F073
:108020006FFC294608F1040001F06AFCF87B012886
:1080300028D016482946001D15E029461AE00022DE
:108040000221B1EB101F01D2012600E000260F49EA
:10805000083901F11000041D294682B101F050FCDD
:1080600036B12946204617B0BDE8F04F01F048BCB4
:108070002946204617B0BDE8F04F01F02BBC01F0B7
:1080800029FCF5E717B0BDE8F08F00003C42002066
:10809000F0B585B016460F4604001D4614D004AA5C
:1080A00019466069FFF7C6FA00280BD1A5F57F4095
:1080B000FF380BD0049848B1007848B13088F428D4
:1080C00008D9072005B0F0BD0E20FBE70520F9E731
:1080D0000820F7E700200090019002900390A0880C
:1080E000ADF8000001208DF80200CDE90267694675
:1080F0002846AEDFE6E7000030B5144B0D4604001D
:108100000FCB85B08DE80F001ED0EDB12868A061BF
:108110002146684662DF002814D120788DF81200CD
:108120000120ADF81000A21C04A9A8DF002809D185
:108130002946204603F0E7FE002803D129462046C1
:1081400004F05CFB05B030BD0E20FBE7B0CF0200B1
:1081500070B588B00446002924D0002C22D00846EF
:108160002188102920D0502924D057291AD105461A
:10817000A188406906AAFFF75DFA002812D1069E81
:10818000307800280ED018216846FEF788F90120C3
:108190008DF800000195A088ADF808000396A96944
:1081A0006846884708B070BD08B02146BDE87040F9
:1081B00003F066BC08B02146BDE8704003F038BD4E
:1081C000007800F0010070470149085C704700002A
:1081D00068CF02000649095C4FF0A040D0F81005B6
:1081E000C84010F0010000D0012080F0010070476D
:1081F00068CF02002DE9FC410646C0074FF000059C
:108200000ED0104F00240122385D00950023114646
:10821000019501F0C3FF641C042CF4D300F046F870
:10822000B0070DD5074E0024361D0022305D032314
:1082300000951146019501F0B1FF641C042CF4D3A4
:10824000BDE8FC8164CF020007490B5C4FF0A04100
:10825000D1F804250120984020EA0203C1F808352E
:108260001040C1F80C05704764CF02000249085C59
:10827000012102F035B8000064CF02000249085C19
:10828000002102F02DB8000064CF02000649095C0D
:108290004FF0A040D0F80405C84010F0010000D015
:1082A000012080F00100704764CF020010B5002467
:1082B0002046FFF7DBFF641C042CF9D310BD10B57A
:1082C00000242046FFF7DAFF641C042CF9D310BD0C
:1082D00010B50246064B4FF0FF3000215C5C944223
:1082E00001D1084610BD491C0429F7D310BD000078
:1082F00068CF020070B50C4E0C004FF000053060E6
:108300000BD0012000F06AF808B1022004E0002040
:1083100000F064F800B10B202070706810B9FEF70F
:10832000EDFD0546284670BD082C002010B5002044
:1083300000F0D4F908B1062806D1012000F0CEF9EA
:1083400008B1062800D1002010BD00002DE9F0473B
:108350000D468146FFF7BCFF0446042836D2DFF8FD
:1083600074801B481C4EA8F10C0725B3012D0ED0BC
:10837000022D2BD104EB440030444578002D25D04C
:10838000B968002922D02846BDE8F047084704EB29
:108390004401755C0E44717849B10E4A4FF40041B6
:1083A000093A8068FEF7E4FE08B987F80390B178CF
:1083B00008F80410E2E78068FEF71EFF04EB4401B2
:1083C000314418F804008D78A842D7D0BDE8F08772
:1083D0006CCF0200042C0020B8410020042801D2F8
:1083E000FFF7F8BE002070470146104810B54088DE
:1083F000042907D007290ED00A2915D1BDE810405D
:1084000003F0A2BF132176DF0CE000280CD0BDE8FA
:108410001040FEF73BBEA0F57F41FF3904D1044870
:10842000FFF7E6FA0828F0D110BD0000A02A0020CE
:108430003C3F002070B50023042810D20D4D00EB06
:108440004004012A02D101290CD00022094E00EB80
:108450004000304461B1012906D0022906D007232B
:10846000184670BD0E30C2B22A55F9E74270F7E7E0
:108470008270F5E7B8410020044A014600201279D5
:10848000D20702D0084600F04DB87047F82B002004
:1084900070B506461E480024C0E90161B00720D52A
:1084A0000025012211462846FFF7C4FF6D1C044633
:1084B000042D02D2002CF4D013E094B940F266628D
:1084C00004211448FEF768FD04000AD1FEF752FDAE
:1084D000040006D10F48104A0021001FFEF70AFED3
:1084E0000446F00712D00120FFF784FE74B9094852
:1084F0000A4A00210C38FEF7FDFD040006D10548AC
:10850000074A01210838FEF7F5FD0446204670BDF4
:10851000F82B002078CF0200A9870200E592020024
:10852000336F02002DE9F05F6A4C05460026607843
:10853000B34618B184F801B000F0BCFE664F4FF4AA
:108540007A694FF4C87A4FF00108182D62D2DFE83B
:1085500005F0AC0C0C31404D62676B746B74BE7DE2
:108560007D7D7D7DACAFB2B5BEBE0020FFF78EFE37
:1085700000284FF0000008D0FFF778FE022D02D14E
:108580004FF4E16008E0484606E0FFF777FE022D71
:1085900001D1C82000E05046410CC0034FF4FA72EC
:1085A000801841F10001257052000023FDF71AFFE9
:1085B00001462AE00020FFF769FE00284FF0000086
:1085C00004D0FFF753FE4FF44870E5E7FFF756FE7F
:1085D000DFE70020FFF75AFE00284FF0000002D02E
:1085E000FFF744FECFE7FFF749FED4E70020FFF78F
:1085F0004DFE00284FF0000002D0FFF737FE01E0EB
:10860000FFF73CFE257041F69A1100223868FEF70C
:10861000AFFD064646E00020FFF716FE257008E095
:10862000002051E025703DE084F801800120FFF733
:108630000BFE002240F6CD41E8E784F801800120DE
:10864000FFF702FE00224FF48041DFE77868FEF773
:10865000D3FD0646D5F1110000D02EB10220FFF760
:1086600005FE84F802B01DE0012816D980B2C821A9
:108670004843C117C90341EA5041C0034FF4FA729D
:10868000801841F1000152000023FDF7ABFE0146C6
:1086900000227868FEF76CFD06460220FFF7EEFD2B
:1086A00084F802803046BDE8F09F00F003FEB9E791
:1086B00000F000FEB4E700F0FDFD04E000F0FAFD7C
:1086C0000020FFF7DBFD0120FFF7D8FDAAE7FFF749
:1086D000F6FDA7E7F82B00206CCF0200012104F083
:1086E000FEBB00002DE9F8430546861C00208DF8EE
:1086F000000090460F464FF001096846FEF722FE43
:108700001B4C20683860D4E90001401AA16804F2CB
:108710001C47081A0EE00121384601F001F900F06B
:1087200073FE0146384601F0FBF8D4E90001401A17
:10873000A168081A401C8642EDD8B8F1000F03D09A
:10874000052065F3891002E0062065F39F50A268BA
:108750002168114004EB8101C8602068304420602A
:108760009DF80000FEF712FE4846BDE8F8830000C1
:108770007046002030B482680468531C8360A154A2
:10878000D0E901128A4202D330BC01F066BB30BC92
:1087900070470000034803C8814201D1012070479F
:1087A000002070477046002000780221FFF7CEBD00
:1087B00005494FF0FF32082841F8202002D3084431
:1087C00080F8482070470000C0420020F0B54FF00C
:1087D000FF3512B10023082601E008230C260C4CBB
:1087E00005E000BF54F823707F1C04D05B1CB3422B
:1087F000F8D32846F0BD26185DB286F8305044F80C
:108800002310002AF5D1E11881F84800F1E70000B3
:10881000C04200200249084490F93000704700002F
:10882000C0420020A0F141011A2901D2C8B270470C
:1088300021280BD02E280BD02C280BD0202803D099
:108840003F2809D0402809D01D2070471A207047C2
:108850001B2070471C2070471E2070471F20704748
:1088600070B5084C050009D010342168002907D0E4
:1088700008682060496828468847F6E70834F4E726
:1088800070BD0000AC420020054A012120B1012842
:1088900005D19170FFF7E4BF51700020FAE77047EF
:1088A000AC4200202DE9F05F26484168F1B3DFF8C3
:1088B00098B00E688146DBF8004087688078E11B3D
:1088C00021F07F45ED1CB0B9DFF880804FF4803097
:1088D000C8F84403C8F804031120FDF7ABFF1120CA
:1088E000FDF7B3FF4FF0010AC8F800A02F2002F0F7
:1088F0008DFB89F802A0B54200D23546124BE8192B
:108900003C3320F07F401860DBF800105A46091B0A
:1089100021F07F41001B20F07F40C91C81420FD90C
:10892000106818602F2002F071FB00E004E0BDE841
:10893000F05F1120FDF794BFBDE8F05F03F0ACBA23
:10894000BDE8F09F582C00200415014000100140A4
:1089500073B58CB00646002000900D9880B10024BD
:108960006D4621460DA800F0C0FF30B1009805EB20
:10897000400084800098401C0090641C142CF0D3AC
:108980002C2269463046FDF771FD0EB070BD2DE911
:10899000F04117880646B81D14460D46984202D984
:1089A0000C20BDE8F0813188072206290AD34FF454
:1089B000486C4FF6FF73614501D9994202D1708826
:1089C000062801D21046ECE7604501D99842F9D15A
:1089D000994203D0984201D08142F3D80520E8554E
:1089E00020881221401C80B2208029542088401CFD
:1089F00080B220804119308804F040F92188084471
:108A000080B220804119708804F038F92188084428
:108A100020800020C5E7FEF739BB000038B54A7A50
:108A20000F4B62B100220A725969002906D0012257
:108A30008DF80020ADF802006846884738BD0A7AF4
:108A400062B19B684C68024619462046FEF790FBCF
:108A50000028F3D0BDE8384003F044BB5B68F1E781
:108A600018420020F0B587B0074600200490ADF80A
:108A700010100590ADF812100190029001AA04A9FF
:108A8000384690DF060022D002F066FA114C034609
:108A9000012520883A4605EB00400F4901F02FFEE2
:108AA000BDF8042012B9BDF8060038B12088BDF821
:108AB000063005EB004009A101F021FEBDF80820B9
:108AC0002AB12088154905EB004001F011FE07B0DE
:108AD0003046F0BD202D0020D4D20200546865201D
:108AE0007265717565737465642054582F525820EF
:108AF0007061636B6574206C656E67746820697360
:108B000020746F6F206C6F6E672062792025752F3F
:108B10002575206F63746574732E000020D30200E6
:108B20000249086008680028FCD17047D82A002054
:108B30002DE9F0470025DFF88C803CE060680021DB
:108B400000EBC506012032789146FDF77CFCD4E9A4
:108B5000062300EA020701EA030C57EA0C0728D0B3
:108B600082438B434846C4E9062302F011FB327866
:108B70008246914601200021FDF765FCD4E90423DB
:108B800000EA020401EA03074A4650460021FDF7C5
:108B90005AFC44404F403C430BD17078012801D02F
:108BA000012100E00021726881EA0A010AB1484609
:108BB00090476D1CEDB298F8000044468542BDD345
:108BC000BDE8F087382C002010B50021024800F0E5
:108BD000B8FE80F3100010BD8C4A00200E4910B57D
:108BE0000A784C780023A24212D0521CD2B20A70EA
:108BF000022A00D10B70084A0B780C3252F823205D
:108C000002608868104420F07F408860012010BD19
:108C10000360002010BD0000582C002030B5044631
:108C2000006887B00D46806800281FD0182168466C
:108C3000FDF735FC0195A0680590207910B1012859
:108C400010D107E001208DF8000020690290E06853
:108C5000039005E002208DF80000E0680003029018
:108C600060690490206881686846884707B030BD15
:108C7000826883881A4003689A5C0A708168491C7C
:108C800081607047C26883881A4003689954C1683C
:108C9000491CC160704770B50D460446B0F8981085
:108CA000D0F894000122FEF7AAFD00B1057004F18E
:108CB0003C0204F1940104F1540072DF70BD10B560
:108CC0000446C0B2FEF714FB204610BD0B484A888C
:108CD00043889A4211D10A88A2F52063773B0CD1D0
:108CE0008988C91E8AB282800548032113460088FC
:108CF00001EB004003A101F002BD7047A02A002053
:108D0000502D002044617461206C656E20697320D1
:108D100073657420746F20307825582825642900E5
:108D200010B50949094800F08DFE08B1FEF7AEF90B
:108D3000F721064800F07AFE002803D0BDE8104075
:108D4000FEF7A4B910BD0000CD8C02001C3F00202E
:108D50002DE9F0418046024601200021FDF773FB1A
:108D60001A4F05460E467868FEF746FA00280CD1E1
:108D7000174CD4E9062110462A4001EA06031A439B
:108D800005D0A843B143C4E90601BDE8F0814046DF
:108D900002F0FEF930B1D4E9040128433143C4E9BB
:108DA000040105E0D4E90410A943B043C4E9041068
:108DB000D4E9060128433143C4E90601A168786873
:108DC000BDE8F0410022FEF7D3B90000CCCF02008D
:108DD000382C002010B500220E4811468154521C38
:108DE000D2B2042AFAD300225FF0E10400EB82033E
:108DF000521C1C7159719971D2B2D971402AF5D3A4
:108E00000021FF224318491CC9B283F80421052917
:108E1000F8D310BDF43F00200146034802888A427F
:108E200000D0002070470000044200202DE9FC5FC4
:108E30000E008346DDE90C47C6F1000098469246D5
:108E4000814600D40846012503E000BF90FBFAF0FC
:108E50006D1C5045FADAA84500D9454624B1002ECC
:108E600001DB780700D5641EB80702D5B8F1000F02
:108E70000AD0F80708D13CB1A54205D220215846B6
:108E8000641EFFF777FCF6E7002E02DA4E462D212E
:108E900002E0780703D52B215846FFF76BFC07F05B
:108EA000030002280BD1B8F1000F08D13CB1A54254
:108EB00005D230215846641EFFF75CFCF6E7CDE989
:108EC0000047434652463146584603F0DDFEBDE8B2
:108ED000FC9F000070B50D46044600684FF4887191
:108EE00002F05AF84FF49071206802F055F84FF4F0
:108EF0009271206802F050F84FF4A271206802F0DD
:108F00004BF820681249C0F8041320686907000B69
:108F100040B2090E002806DA00F00F0000F1E02050
:108F200080F8141D03E000F1E02080F800142068B0
:108F30000121000B40B200F01F0291404009800067
:108F400000F1E020C0F88012C0F8001170BD0000F0
:108F500010030200024600201268930702D0530754
:108F600002D47047500714D502F00300012802D044
:108F700002280CD105E0C2F383100B68801C184452
:108F800004E00223086803EB9252104408600120B9
:108F90007047086800EB9253C2F38910401CEEE75B
:108FA000F0B58488A518944200D82246A41AC28835
:108FB000D6189A4200D81346D21A4B880788BB426B
:108FC0000CD34088834209D88888A04206D3A8429F
:108FD00004D8C888904201D3B04201D90020F0BD26
:108FE0000120F0BD2DE9F0474F4C06460088208156
:108FF00004F10808002588F802504CA13046FDF71E
:1090000060FA4FF0020930B349A13046FDF759FA32
:10901000012720B347A13046FDF753FA4FF0030A6A
:10902000F8B146A13046FDF74CFAE8B144A130460C
:10903000FDF747FAD0B143A13046FDF742FAC0B17F
:1090400041A14046FDF73DFAA8B13046FDF732FA9E
:1090500040284CD049E084F80090BDE8F0872770A4
:10906000FBE784F800A0F8E7052000E00620207068
:10907000F3E70720FBE708202070B078A0712A48AA
:1090800088F801502DA1801DFDF71BFA78B1264804
:109090002BA1801DFDF715FA58B1234829A1801D89
:1090A000FDF70FFA40B12570A770032711E0677034
:1090B000FAE784F80190F7E784F801A0F4E700BF2D
:1090C000FDF7D0F90068F15D405C202800D0A57064
:1090D0007F1C3046FDF7EEF9B842F1D8A07820B1F8
:1090E000F01CFDF705FAA080B7E72570B5E7092069
:1090F0002070A770032708E0FDF7B4F90068F15D60
:10910000405C202800D0A5707F1C3046FDF7D2F9C6
:10911000B842F1D8A0780028E7D03146BDE8F04742
:1091200040220A48FDF7A2B9DC2A00204F4E000079
:109130004F46460050494E470000000042000000E4
:109140004700000052000000503A0000FC400020A0
:1091500070B5524C20780A2870D2DFE800F0956B89
:1091600005079570747A7E98012164E000210F2034
:1091700001F0ABF84FF47A752846FFF7D1FC0121D6
:109180000F2001F0A2F82846FFF7CAFC00210F20AB
:1091900001F09BF82846FFF7C3FC01210F2001F0E6
:1091A00094F82846FFF7BCFC00210F2001F08DF851
:1091B0002846FFF7B5FC01210F2001F086F828466C
:1091C000FFF7AEFC00210F2001F07FF82846FFF7E3
:1091D000A7FC01210F2001F078F82846FFF7A0FC3A
:1091E00000210F2001F071F82846FFF799FC0121BA
:1091F0000F2001F06AF82846FFF792FC00210F20AB
:1092000001F063F82846FFF78BFC01210F2001F0E5
:109210005CF82846FFF784FC00210F2001F055F888
:109220002846FFF77DFC01210F2001F04EF828466B
:10923000FFF776FC00210F2001F047F824E0002220
:109240001146802002E00022802104E002F0F8FFB5
:1092500018E0802200210020F8E76078012804D07F
:10926000022806D0032807D00CE000231A468021EC
:1092700005E00023802201E0802300220021A08855
:1092800003F058F8FDF758FE0020207070BD002252
:1092900080231146024802F0FDFFF3E7DC2A00209C
:1092A000FC4000200248002101708180417070471D
:1092B000DC2A00200A4810B5807860B1002401E063
:1092C000022C06D02046FEF7D1FF641C042CF7D3F5
:1092D00010BD0324F6E7BDE81040FEF7E7BF00002D
:1092E000F82B002003480179C90702D00078FFF766
:1092F00019B97047F82B0020F72101801721418010
:10930000002101714171FB2181711B21C1717047E5
:109310002DE9F047394E002780463D46DFF8E090C2
:10932000D6F804A057E003D00446D0F81C8035E0FE
:1093300099F8002002EB4201521CD2B289F80020B9
:1093400009EBC10199F80230091D9A4201D189F84F
:10935000005048680A780446012A12D0022A02D036
:10936000032A3BD108E003F0ABF900B101272574D3
:1093700034E00574C06900E070680028F9D17060BD
:109380002CE0207C50BB88686060C868A0600869D9
:10939000E0604869A061F07800B165606268B1681A
:1093A000184B501A20F07F40984202D2A16808441E
:1093B00006E0881AA16820F07F40814202D9081A8D
:1093C000206000E0256065600120A56020742046D3
:1093D000E56103F057F9B8F10000A4D199F8001045
:1093E00099F801008142A3D117B97168514502D0A3
:1093F0000120BDE8F0870020FBE70000582C00208A
:109400008C430020FFFF7F002DE9FF410026234809
:1094100000F083FA2148001F074600F07EFA204C36
:1094200060680090A56800E000986946284004EB59
:1094300080000C30FFF78EFD0028F5D101AA0099BD
:1094400001EA050304EB8303491CDB6842F8203082
:10945000401C00910228F2D3019800F0030001287B
:109460000BD0022810D10198032101EB90500099F4
:10947000BDF80A6001EB900005E00198BDF80A60B4
:10948000C0F3831008440090384600F043FA08B156
:109490000098606004B03046BDE8F081884A002042
:1094A00070460020ACB0182274496846FCF7DEFF15
:1094B0007348069073494FF40060CDE907010990A5
:1094C0000723714A06A96846FDF7C0FE08B1FDF7FB
:1094D000DDFD4FF40041002001F070F908B1FDF707
:1094E000D5FD00F0E3FFFDF719FE08B1FDF7CEFD55
:1094F00066490320FEF7CCFF08B1FDF7C7FD6946BA
:109500000020FEF7F7FE08B1FDF7C0FD01F074FA88
:1095100008B1FDF7BBFD01F04BFC08B1FDF7B6FD4E
:10952000002469460120009401F0A8FA08B1FDF773
:10953000ADFD684601F04CFB08B1FDF7A7FD9DF8B5
:10954000080053A120F00F00401C20F0F000103064
:109550008DF808000B2202A87CDF08B1FDF796FD0C
:1095600000941020ADF800003C200194ADF80200FA
:10957000ADF804404FF4C870ADF8060068467ADFD5
:1095800008B1FDF783FDFFF7CBFB4448019001A92B
:10959000434800F018FB08B1FDF778FD4148009002
:1095A00069464148FEF7A8FD08B1FDF76FFDAC2103
:1095B0006846FCF774FF02208DF800008DF8024029
:1095C00005208DF803000120ADF84C0036498DF8D8
:1095D0007C00402012392290149144F25060239074
:1095E000324829902E4869460C30FEF737F908B109
:1095F000FDF74CFD2A4801210C30FEF72CF91C2107
:109600006846FCF74CFF4FF42030CDE900404FF4A2
:109610007020029026480590032526488DF80C50AE
:109620000690ADF80E408DF810406846FEF718FB26
:1096300008B1FDF72BFDFFF735FEFDF7CBF902F082
:10964000E7FE1DA0FDF710FC204821A1008805EBD6
:10965000004001F049F8124803210C30FEF7E5F90B
:1096600008B1FDF713FD254CFFF772FD201DFDF736
:109670007FFF00F029FF01F0D3F9F5E718CF0200D2
:10968000192F002019370020F1C80200E9830200D9
:109690004E6F726469635F554152540065AA0200BF
:1096A000303F002039B90200B82A002041BA020038
:1096B00065BA0200178A02000D0A55415254207300
:1096C0007461727465642E0D0A000000502D002034
:1096D0004465627567206C6F6767696E6720666FA7
:1096E000722055415254206F766572205254542096
:1096F000737461727465642E00000000602D002098
:1097000070B5144682880E4605462088111D014416
:10971000921C994201D8FE2A01D90C2070BD521C1E
:1097200032542088FF21401C80B220803154208890
:10973000401C80B220808119288803F09FFA21887C
:10974000084480B22080AA8842B1A96841B130445F
:10975000FCF78CFE2088A98808442080002070BD7A
:10976000072070BD2DE9F047C7880446181D16462E
:109770008946B0FBF7F1B0FBF7F207FB12009A192C
:109780003A44D21CB2FBF7F2DDF820A001E02468D5
:10979000491E0029FBD13D1A8846B54216D818E06B
:1097A000BAF1000F05D0211809EB08002A46091D5F
:1097B00004E0204409EB08012A46001DFCF756FE90
:1097C00000202468761BA844B74201D9354600E042
:1097D0003D46002EE4D1BDE8F087000030B50246DA
:1097E00059B101F017F80021074C09E004EB81039F
:1097F00015685B88AB4202D11160002030BD491C66
:109800008142F3D3052030BD1C2D0020F8B50F4652
:10981000017814460546012901D1687830B12088C5
:10982000821C9A422DD8012902D006E00720F8BDFB
:1098300069780144891C994223D8181A801E86B27F
:10984000ADF800602188B81C084469467DDF002817
:10985000EDD12878022805D1BDF80010B14201D819
:1098600009210AE00821012805D16878B04202D810
:10987000ADF8000001E0ADF80060BDF80000FE2882
:1098800001D90C20F8BD2288401CB8542088401C07
:1098900080B2208039542088401C2080BDF8001000
:1098A000084420800020F8BD10B50A8849888A4203
:1098B00003D1FCF7F1FC012010BD002010BD70B5F4
:1098C0000C460546FCF7CBFC002802D061882868CE
:1098D000084470BD01F01F0301229A40D243490998
:1098E00000EB8100114600F021B84A0950F822002F
:1098F00001F01F0201219140084000D00120704773
:1099000001F01F0301229A40490900EB8100114632
:1099100000F01CB8002100F00FB8012100F016B8CB
:1099200008B56A46FCF70DFD009808BD08B56A4603
:10993000FCF7EDFC009808BD08B56A46FCF7E7FCAB
:1099400008BD08B56A46FCF7C9FC08BD08B56A46FB
:10995000FCF7D0FC009808BD08B56A46FCF7FEFC91
:10996000009808BD38B5044600258DF800506846BB
:10997000FDF7E8FC21686268086890420ED9401E35
:1099800008600178A38AE26801FB0325227A216836
:10999000101AC0B20A79824200D208719DF8000004
:1099A000FDF7F4FC284638BD38B5054600208DF893
:1099B00000000C466846FDF7C5FCE868A98A201A35
:1099C000B0FBF1F12A681068431C136001709DF828
:1099D0000000FDF7DBFC38BD10B530B1017A4268FC
:1099E0000368891AC9B21A6006E00E2010BD036828
:1099F0001A68541C1C601170491EC9B2F7D2006865
:109A000000210171084610BDC20800F007030120C3
:109A1000895C98400840704710B5C20800F0070301
:109A2000885C01249C402043885410BD28B1A1F1DA
:109A30001702E12A03D3072070470E2070470180E8
:109A40000020704710B560B10161F72120F8021BBA
:109A500020F8021BFB2100F8021BFFF74DFC002041
:109A600010BD0E2010BD0000F0B5858893B00C46E7
:109A7000002D39D1018800263E4F24293BD006DC39
:109A8000102909D011290CD0232958D14FE03A29A7
:109A90000BD0552953D129E00146204602F026F883
:109AA0004DE0A01DFFF728FC49E02246408934F82C
:109AB000061F814200D808466080172800D2172070
:109AC0006080106970B1607960B1D7E90001CDE9BB
:109AD0000301ADF80E506088ADF81000136903A9BA
:109AE000104698476671267113B0F0BD01462046B6
:109AF00002F04CF823E0011D2C2206A8FCF7B6FC6E
:109B0000BDF81800BDF81C2004EBC0014A7322699F
:109B1000AAB1D7E90423CDE90423ADF81200487BAC
:109B20008DF814002269204604A9904707E0017AC5
:109B3000207B884200D201462846FEF793FFA07A98
:109B40000028D1D0E1882846A5DF012570B1112871
:109B5000CAD001F001FA0246074808A1008813B0F4
:109B600005EB0040BDE8F04000F0C2BDA672E57212
:109B7000BAE7000098CF0200202D002073645F62D6
:109B80006C655F67617474635F65786368616E6755
:109B9000655F6D74755F72657175657374282920D2
:109BA00072657475726E65642025732E0000000066
:109BB00020B10278DE2A03D0082070470E207047BB
:109BC00041800020704760B159B10278DE2A0AD086
:109BD00009684160DE2101704FF6FF71418000206D
:109BE00070470E207047082070477FB50546002952
:109BF0004DD0002D4BD008780C46DE2847D1A888E0
:109C00006188884202D1204603F0D8F828880128CC
:109C100025D002283BD011283AD0512837D135F829
:109C2000040F6188884232D1A978A81C02292ED15C
:109C3000017A042903D0062901D0052927D1002162
:109C4000009102228DF8002001914FF4C072029120
:109C50000391ADF80420007A05280FD010E0297A8E
:109C60002046012913D1A988428891420FD10121B0
:109C7000017204B0BDE8704003F0A0B8ADF8041064
:109C800028886946B0DF002801D0616888477FBD19
:109C9000A88861888842FAD14FF6FF7060807FBD46
:109CA00000F180400068002800D00120704708B50E
:109CB00000F18040002101600068009008BD0000B4
:109CC00070B50B4C207808B185250FE00020A0600E
:109CD00060602061E060074801F07AF9054601F014
:109CE000C1F808B901F05EF901202070284670BD66
:109CF000AC4200208988020038B500258DF800505C
:109D00006846FDF71FFB074CE068401EE060E06816
:109D100010B901F06DF9A5709DF80000FDF736FB54
:109D200038BD0000AC4200202DE9FF411C460378FD
:109D3000164D174E45F823200C3545F82340F0CE3C
:109D40008DE8F0000C788DF800404C788DF80140DB
:109D50008C788DF80240CC788DF803400C798DF822
:109D600005404C798DF806408C6802940C7B8DF888
:109D70000C40497B8DF80D1002B1064A6946001D62
:109D800001F080FA04B0BDE8F08100003C41002001
:109D900050CF020085C40200F0B50546047815488E
:109DA00089B0164640F82420124A0869121DA2F113
:109DB000080742F82400487F385520226846FCF7FF
:109DC00055FB04942878385C48B10EB10A4A00E08B
:109DD00000226946281D01F0A1FC09B0F0BD0EB1BA
:109DE000064A00E00022694605F10C0001F04CFB38
:109DF000F3E700001C2C002059CB020001CA02002E
:109E000030B40378054CE35C1BB130BC001D01F09D
:109E1000BBBC30BC0C3001F0A1BB0000182C0020F2
:109E200030B40378054CE35C1BB130BC001D01F07D
:109E30002DBD30BC0C3001F007BC0000182C0020F8
:109E40000FB408B50399002904D004AA00926A4609
:109E500000F00FF801B05DF814FB10B582680446FD
:109E6000002A05D0D4E90403216898470020A060A7
:109E700010BD2DE9FC4791460C00804676D014F8C1
:109E8000011B39B125290ED04046FEF773FC20781E
:109E90000028F4D198F80C00002867D04046BDE8AF
:109EA000FC47FFF7DABF0020012221782B291BD0C5
:109EB0002D2902D0302908D102E040F0010001E054
:109EC00040F00200641C002AEFD100252A290ED0A0
:109ED0002178A1F130020A2A11D205EB850201EBAB
:109EE0004205641C303DF1E740F00400EAE7D9F890
:109EF00000100B1DC9F800300968641C0D4421785E
:109F000000232E290BD114F8011FA1F130020A2AD7
:109F100005D203EB830201EB4203303BF3E76C29EC
:109F20000DD068290BD0692921D00BDC252918D048
:109F3000582931D063290ED0642915D117E014F8BF
:109F4000011FECE7702969D0732932D075291BD025
:109F5000782909D120E0D9F80000011DC9F80010C6
:109F600001784046FEF706FC641C90E76CE0D9F8E7
:109F700000100A1DC9F800200968CDE900500A2226
:109F80004046FEF753FFEFE7D9F800100A1DC9F865
:109F9000002009680A2206E0D9F800100A1DC9F855
:109FA000002009681022CDE90050404602F06CFE06
:109FB000DAE7D9F8001000270A1DC9F800200E685A
:109FC000C00705D112E04046761C7F1CFEF7D2FB8D
:109FD00031780029F7D104E0202140466D1EFEF7BC
:109FE000C9FBBD42C0D9002DF6D1BDE74EB1304608
:109FF000FCF760FA074604E0202140466D1EFEF79C
:10A00000B9FBBD4206D9002DF6D103E04046761CCF
:10A01000FEF7B0FB31780029F8D1A5E7D9F80000A8
:10A02000011DC9F80010056830214046FEF7A2FB6B
:10A0300078214046FEF79EFB08200021CDE9000173
:10A04000034610222946B0E7BDE8FC872DE9F04120
:10A0500028B1016819B1C969BDE8F04108470D4D43
:10A060000D480024461B14270DE000BF04EB8400BC
:10A0700005EB8000016829B1C969884710B101204A
:10A08000BDE8F081641CB6FBF7F0A042EED80020DA
:10A09000F6E7000000000000000000000448012175
:10A0A0004174007A08B10020704701207047000019
:10A0B00050450020012801D0032808D1044900227E
:10A0C00001284A7400D00020087401F095BE704742
:10A0D0005045002070B50246022801D0032A45D120
:10A0E000234C207A002841D0012833D0022831D1D6
:10A0F00020480023022A006802D0032A2AD11BE04C
:10A10000E360017911B1012924D10DE0D0E90565A1
:10A11000711B4FF48056B14200D33146294481610E
:10A120004569A9420ED015E00169491C01614269E7
:10A1300091420FD1237213E0E168491CE1600829C4
:10A1400008D9E3602372022A0AD00D21FEF766FDCA
:10A1500001F048FE607C28B1BDE8704000F088BE88
:10A160000021F3E7BDE8704001F046BE70BD00007D
:10A17000504500209C2C002070B541EA4201DDE9E9
:10A1800004564FF0A04441EA830141EA052104EB63
:10A19000800041EA0641C0F8001770BD70B541EA81
:10A1A0004201DDE904564FF0A04441EA830141EA4F
:10A1B000052104EB800041EA0641C0F8001770BD9C
:10A1C00070B541EA4201DDE904564FF0A04441EA8E
:10A1D000830141EA052104EB800041EA0641C0F811
:10A1E000001770BD70B541EA4201DDE904564FF039
:10A1F000A04441EA830141EA052104EB800041EAE1
:10A200000641C0F8001770BD70B541EA4201DDE9B2
:10A2100004564FF0A04441EA830141EA052104EBD2
:10A22000800041EA0641C0F8001770BD1CB500224D
:10A230000B46009211460192FFF7D4FF1CBD1CB5DE
:10A2400000220B46009211460192FFF7DDFF1CBD74
:10A250001CB5002100910B46012201911146FFF728
:10A260008BFF1CBD1CB5002100910B460122019102
:10A270001146FFF7B7FF1CBD1CB5002100910B462E
:10A28000012201911146FFF7BFFF1CBD4FF0A04214
:10A2900002EB8000D0F8002722F44032C0F80027FB
:10A2A000D0F8002742EA0141C0F8001770474FF08C
:10A2B000A04201218140C2F80C1570474FF0A04226
:10A2C00001218140C2F80815704701224FF0A043D8
:10A2D000824011B1C3F808257047C3F80C257047B8
:10A2E00001224FF0A043824011B1C3F80825704706
:10A2F000C3F80C257047000018B5084B6C460144A4
:10A300001B68009306E000BF54F82030D3F81035E6
:10A31000401C08C28142F7D818BD0000C0CF02001F
:10A32000034908B50844002101600068009008BD99
:10A330000060004002494058012800D000207047CA
:10A340000060004030B5124B01460020D3F81044A5
:10A35000224609E0157A854205D1401C0A28F7DB20
:10A360004FF0FF3030BD5268002AF3D1421CF9D0C3
:10A370000872D3F810242AB152684A60D3F8102426
:10A38000516030BD0022C3F810144A6030BD000097
:10A39000704600207047FCF7BDBA704708B5034A05
:10A3A00000924023024A00F005F808BD69C102008E
:10A3B00070450020F0B595B01C4615460F4608467E
:10A3C0001A9E00F0F7FA182109A8FCF768F80E9613
:10A3D000CDE909540023082203A9384600F0FFFA0A
:10A3E00005980690BDF81000ADF81C00BDF81200ED
:10A3F000ADF81E0000208DF821000398082600F01B
:10A400000300012802D0022818D032E00398334616
:10A41000850AC0F3C2008DF8200003980FA9C0F38D
:10A420008314A200384600F0DAFA09A8009006ABBF
:10A4300022460FA9284600F019FA1AE00398840D65
:10A44000C0F3C2008DF82000082C01D2254600E0A0
:10A45000082533462A460FA9384600F0C0FA2E4494
:10A46000641B09AB06AA29460FA800F051F9002C7D
:10A47000EAD1384600F0A4FA15B0F0BD0A4A012925
:10A4800002EBC00007D0022907D0032907D0042916
:10A4900007D00020704702207047042070470079E1
:10A4A00070474079704700006CDA020010B5FFF782
:10A4B00072FF04210348FFF745FF0249012048725B
:10A4C00010BD0000B42C00202DE9F04F8DB0FEF738
:10A4D00061F918B100200DB0BDE8F08F7A4C4FF053
:10A4E000000BC4F818B4BFF34F8F60680290A568E2
:10A4F000D846284004EB800008E021680298814299
:10A5000001D86160E6E7284004EB80000C3002A926
:10A51000FEF720FD0028F0D105AA029901EA050303
:10A5200004EB8303491CDB6842F82030401C029195
:10A530000228F2D3059800F00300022802D0012877
:10A540004ED0A9E005985022810D8946B2EB905F6C
:10A5500000D850210E4666F39F50059008315B48A5
:10A5600000F0DFF9070079D000F024FA4346082212
:10A5700005A9384600F039FA029908F1080A29407D
:10A58000681A8000001D864223D94F4D0C3530B12A
:10A59000C2B204EB8101301A90460C3104E0294626
:10A5A000F2B2002590462846C6B25346384600F01F
:10A5B0001CFA0AEB08032DB1324629464FEA070080
:10A5C00000F013FA029909F1030001EB90000290E8
:10A5D0003BE004EB81015346324638460C31EFE74D
:10A5E0000598C0F38310062800D30620059960F370
:10A5F0008911C1F38310801C05918100334800F05C
:10A6000090F9070048D000F0D5F94346082205A983
:10A61000384600F0EAF908F1080800260FE0029831
:10A62000434600EA0501401C04EB8101029004222C
:10A6300038460C3100F0D9F908F10408761C059869
:10A64000C0F38310B042EAD847B1D4F81054D4F81C
:10A65000180468B1384600F0B3F92FE01CE0687ABE
:10A66000012804D12A6828463946126890476D6847
:10A67000002DF4D1384600F0A3F98DF800B06846FB
:10A68000FCF760FED4F8180408B9029860609DF8E1
:10A690000000FCF77BFE11E0D4F8104404E02168D0
:10A6A0002046896888476468002CF8D10848022150
:10A6B000008801EB004007A100F016F8FEF76AF8E9
:10A6C00080F0010007E7000070460020F4DA020085
:10A6D000502D00204261636B656E647320666C755B
:10A6E000736865640000000000231A4601F044BF4F
:10A6F00008B5012300926A4601F03EFF08BD1CB573
:10A70000CDE9002302236A4601F036FF1CBD00009C
:10A710002DE9F0470E4680461C46924608293ED851
:10A7200094F80C90002020731946104601F002FBAB
:10A730000025B54206D218F805201AA12046FFF7D9
:10A740007FFB03E019A12046FFF77AFB6D1C082D63
:10A75000EFD317A12046FFF773FB0025B54210D2B7
:10A7600018F80570FBF77EFE0068C05D10F03E0F24
:10A7700001D03A4600E02E220EA12046FFF760FBF2
:10A7800003E00DA12046FFF75BFB6D1C082DE5D310
:10A7900001222146504601F0AFFA84F80C90BDE842
:10A7A000F0870000202530327800000020202000B3
:10A7B0007C0000002563000020000000104810B558
:10A7C000FF218160002101604160C0F81814C0F8C9
:10A7D000141480F820140B4800F0F0F800280DD174
:10A7E00009480A490A4B401AC108002003E000BF8B
:10A7F00023F82000401C8842FAD3002010BD00003E
:10A8000070460020F4DA0200F4DA02006CDA02008A
:10A810001C2D002002480349401AC0087047000060
:10A82000F4DA02006CDA020013B56846FEF7D6FFD0
:10A8300008B100201CBD0248009950F831001CBD31
:10A840006CDA020070B508480125D0F8104480F891
:10A85000205405E06572216820464968884764688D
:10A86000002CF7D170BD0000704600202DE9FF4795
:10A8700081460C9D00200C462F7B28739846164677
:10A880002946184601F056FA072E42D2DFE806F0B4
:10A8900004090F161F2A360049462846FFF7D0FA4A
:10A8A00037E0494628462268FFF7CAFA31E0D4E982
:10A8B000002349462846FFF7C3FA2AE0A068009023
:10A8C000D4E9002349462846FFF7BAFA21E0D4E943
:10A8D0000201CDE90001D4E9002349462846FFF7EB
:10A8E000AFFA16E004F1080007C88DE80700D4E9C4
:10A8F000002349462846FFF7A3FA0AE004F10800BE
:10A900000FC88DE80F00D4E9002349462846FFF719
:10A9100097FA00222946404601F0EEF92F73BDE870
:10A92000FF872DE9F041858A80462D1F4819C01CFC
:10A93000B0FBF5F0C6B24046FFF714F8041E19D07C
:10A940000020207101206071E58000272546761ED9
:10A95000C4F800800BE04046FFF704F860B161796D
:10A96000491C6171286005467F1CC0F80080B74211
:10A97000F1D32046BDE8F081204600F002F8002027
:10A98000F8E72DE9F041457901466B1E002201E010
:10A990000968521C9A42FBD30F680146002605E065
:10A9A00038460C68FFF700F82146761CAE42F7D314
:10A9B000BDE8F0810121001DFEF7B2BFFFF70CB822
:10A9C00010B504460121001DFEF7C6FF10F0FF0F71
:10A9D00004D12046BDE81040FFF7D3BF10BD38B505
:10A9E00001240094FEF7BEFE38BD38B50024009463
:10A9F000FEF7B8FE38BD0000064910B500204870CB
:10AA0000091D0860BFF35F8F0349044800F05CFA3A
:10AA1000002010BDA42C002040D00200644500207E
:10AA200008B500208DF800006846FCF78BFCF1EEBD
:10AA3000100A20F09F00E1EE100ABFF35F8F084973
:10AA40004020C1F880029DF80000FCF79FFC00F058
:10AA500009FA08B141DF08BD20BF40BF20BF08BDD3
:10AA600004E000E0FCF712BB20B103490968016073
:10AA7000002070470E20704720D202002DE9FE43CF
:10AA800006460D460846FFF7EFFF00287ED18046B8
:10AA9000CDF80080CDF80480012406208DF80060F8
:10AAA000ADF80400CDF808808DF8024069462020FA
:10AAB0002A6869DF3F4F40B100F04EFA02463888FD
:10AAC0003D4904EB0040FFF713FECDF800808DF800
:10AAD00001408DF80280CDF80480CDF808808DF813
:10AAE0000380694640202A6869DF40B100F034FAEB
:10AAF00002463888314904EB0040FFF7F9FDCDF8F4
:10AB000000808DF80060F720ADF80200CDF80480D9
:10AB1000CDF80880694623202A6869DF40B100F03B
:10AB20001BFA02463888264904EB0040FFF7E0FD97
:10AB3000CDF80080CDF80480CDF808808DF8004075
:10AB40004646694601202A6869DF40B100F004FAF0
:10AB5000024638881B4904EB0040FFF7C9FD4FF45B
:10AB6000B0600090019602966946A1202A6869DFCC
:10AB700040B100F0F1F902463888134904EB004077
:10AB8000FFF7B6FD00960196029600E010E08DF802
:10AB900000606946A0202A6869DF40B100F0DCF956
:10ABA00002463888094904EB0040FFF7A1FD002068
:10ABB000BDE8FE83582D0020C0D8020008D902004D
:10ABC00054D9020020D802006CD80200CCD7020071
:10ABD0002DE9F0410446D0F8008060DF2168194D6E
:10ABE000074641451CD92888022606EB004016A1DD
:10ABF000FFF77AFD2888424606EB00401EA1236835
:10AC0000FFF77DFDF006D0F80C012168800200F10D
:10AC10000050421A288825A106EB0040FFF768FD86
:10AC2000012467B1384600F097F9024628882AA126
:10AC300004EB0040FFF75CFD3846BDE8F0812E488C
:10AC40000470F9E7582D0020496E737566666963D4
:10AC500069656E742052414D20616C6C6F63617444
:10AC6000656420666F722074686520536F66744453
:10AC700065766963652E00004368616E67652074C0
:10AC800068652052414D207374617274206C6F634B
:10AC90006174696F6E2066726F6D20307825782040
:10ACA000746F20307825782E000000004D6178699F
:10ACB0006D756D2052414D2073697A6520666F7203
:10ACC000206170706C69636174696F6E20697320B4
:10ACD000307825782E00000073645F626C655F65D4
:10ACE0006E61626C6528292072657475726E656488
:10ACF0002025732E00000000132D002030B51548CC
:10AD0000ADF5017D0078002821D04FF4FA7500BF21
:10AD1000ADF8005280A9684661DF38B1052816D029
:10AD20000DF5017DBDE83040FCF7B0B96C460A492D
:10AD30007DA800F0C9F806E0D0E900212046904740
:10AD40007DA800F0D8F87F980028E1D0F4E70DF551
:10AD5000017D30BD132D002024D20200F8B5134C24
:10AD60002078C0B10120A07001F08EF9112814D014
:10AD7000022001F0A1F900258DF800506846FCF78B
:10AD8000E1FA11DF064625709DF80000FCF7FEFA97
:10AD90002EB13046F8BD0820F8BD0020F8BDA570E2
:10ADA00001F0F2FA032001F087F9F6E7102D0020F8
:10ADB0007CB5204C207808B108207CBD0120A07013
:10ADC000002001F061F9112819D0002001F074F978
:10ADD00019480026006801908DF800606846FCF76D
:10ADE000B1FA164901A810DF05000AD00020207032
:10ADF0009DF80000FCF7CAFA2DB128467CBD002062
:10AE00007CBD0120F3E7A67066700721162001F0D3
:10AE1000F2F808B1FCF73AF90721152001F0EBF838
:10AE200008B1FCF733F901F0CBFA012001F044F945
:10AE3000E5E70000102D0020B8D1020011700200DB
:10AE40000EB50749684600F03FF805E0D0E900106C
:10AE50008847684600F04FF802980028F6D10EBDEA
:10AE6000D4D102000148007870470000102D002066
:10AE70000548817819B1007818B1FFF76FBF082035
:10AE80007047FFF795BF0000102D00201FB56846E2
:10AE90004BDF30B1052814D004B0BDE81040FCF7FA
:10AEA000F5B8084901A800F00FF806E0D0E9002144
:10AEB0000098904701A800F01EF803980028E6D0FB
:10AEC000F4E71FBD40D20200016009684160AFF3A2
:10AED000008010B5D0E900215368994201D10021CA
:10AEE00004E0D1E90034A34202D01946816010BDCC
:10AEF00008314160F0E7816800290BD00268926850
:10AF00000A44826041684B689A4203D1083141602B
:10AF1000FFF7DFBF70474058002800D0012070477E
:10AF20000C4A10B502F594730EE0991AC91001EBA2
:10AF3000D171491002EBC1010C68844201D90B4662
:10AF400002E005D201F108029A42EED3002010BDC2
:10AF5000486810BD60D0020000B5FFF7E1FF00288F
:10AF600000D1014800BD00004CD00200405800282C
:10AF700000D00120704708B5002242504058009090
:10AF800008BDD0F80403084000D0012070474058A5
:10AF9000002800D00120704708B5002242504058D8
:10AFA000009008BD08480068012110F0010F08D189
:10AFB0004FF0E020E02280F80024C0F88012C0F8B2
:10AFC000001102480160704700E100E018050040F0
:10AFD0000649024600200B790BB1852070470A60B4
:10AFE00001220A7100224A7170470000242C0020BF
:10AFF00004490120086004480168C1F300410029A8
:10B00000FAD170470C00004018040040002802D01C
:10B010000149800108477047E1CF02002DE9F04166
:10B020008846054600F050FE234E002828461AD0D8
:10B03000FDF7F0FB304490F848008009032802D067
:10B0400001280ED007E04FF0A040D0F81005E840EE
:10B0500010F0010F05D003212846BDE8F041FFF7AD
:10B0600015B90221F8E700F03BFE002822D028465F
:10B07000FDF7D0FB04464FF4807000EB84000F4FC7
:10B0800081B207EB8400D0F8102542F00102C0F82D
:10B0900010250846FFF744F9B8F1000F0AD02846FA
:10B0A000FDF7B8FB56F82000002803D00120A0408F
:10B0B000C7F80403BDE8F081C042002000600040F2
:10B0C0002DE9FC41DFF8BC80044608EB04000027B2
:10B0D00090F930001346C0170E46401C01D00827D7
:10B0E0004CE0B0781946C0F340022046FDF76EFBF5
:10B0F0000546401C41D0B078410719D4C0070AD09A
:10B100004FF0A04000EB8401D1F8000720F00200CE
:10B11000C1F8000707E000217378204600910A4635
:10B120000191FFF74DF8174920465431FEF774FCA2
:10B13000B078800718D51448317800EB8500D0F836
:10B140001025124B1A40C0F810254FF4F8524FF456
:10B15000403302EA042203EA01410A43D0F8101501
:10B160000A43C0F8102509E008EB0500327810F812
:10B17000481F41EA8211017000E004273846BDE80B
:10B18000FC810000C042002000600040FFE0FCFFA6
:10B190004FF0A041D1F81015C14011F0010000D0CE
:10B1A0000120704770B5184D95F8580008B1082077
:10B1B00070BD0020411E2A18401CC0B282F8301019
:10B1C0002028F8D300242046FDF7F2FA641CE4B2EC
:10B1D0000C2CF8D300240D49E0206C6581F80004A4
:10B1E00001264020891FC1F88002C1F800014FF4F8
:10B1F000BE70FFF795F80649F007C1F8040385F81B
:10B200005860204670BD0000C042002006E000E00B
:10B2100000600040034890F85800002800D001204A
:10B2200070470000C04200200121B1EB507F01D1E6
:10B2300001207047002070470121B1EB507F01D100
:10B24000012070470020704738B50D4600F0BEFD64
:10B25000040014D000208DF800006846FCF772F856
:10B26000207928B19DF80000FCF790F8112038BD36
:10B270000120256020719DF80000FCF787F8002070
:10B2800038BD00002DE9FC5F0C4601799046DFF8DF
:10B290007CB101EBC1020BEB82060746307F994679
:10B2A00010B10820BDE8FC9F594A3868054652F89D
:10B2B0002110FFF7C9FF08B11120F3E7C6E90089A3
:10B2C000207B0128207802D8FEF7F1FF01E0FEF78D
:10B2D000F5FF4FF0000ACDF800A0CDF804A02078CB
:10B2E000534652460121FEF747FF60784FF0FF3882
:10B2F000FF2806D08146FEF7DAFF4846FEF7A8FF92
:10B3000000E0C146A078FF2809D000228046012332
:10B31000CDF800A01146CDF804A0FEF72DFF387936
:10B32000A17800EBC0020BEB820080F82010E078DF
:10B33000FF2817D0217911B1FEF7B9FF01E0FEF720
:10B34000BDFFE078FEF784FF3879E17800EBC002BA
:10B350000BEB8202D1773A79217902EBC2020BEB37
:10B36000820081772278C5F80825C5F80C95C5F8C4
:10B370001085A068C5F82405217B607B00B1012001
:10B38000012904D0022905D0032908D105E040F0A5
:10B39000020004E040F0040001E040F00600C5F8BF
:10B3A0005405A079C5F8C005306810B14020C5F833
:10B3B00004030720C5F800053068012108B3386888
:10B3C0006279000B40B200284FEA421206DA00F020
:10B3D0000F0000F1E02080F8142D03E000F1E020E0
:10B3E00080F800243868000B40B200F01F0301FA17
:10B3F00003F24009800000F1E020C0F88022C0F88C
:10B400000021504686F81DA031774BE754410020BB
:10B4100060CF02002DE9F04105460F46007915493D
:10B4200000EBC00001EB80041646607F10B11120D4
:10B43000BDE8F081206820B116F0140F01D1012081
:10B44000607797E80F0004F10C0888E80F00E07FB0
:10B45000FF2806D0A17F11B1FEF730FF01E0FEF713
:10B4600026FF33463A4621462868BDE8F04101F000
:10B4700025B80000544100200149024801F0D8BA23
:10B480001C430020002000402DE9F04105460079D2
:10B4900016460F4600EB40012D4A01EBC00102EBBE
:10B4A000810494F82A1011B10820BDE8F0812949DF
:10B4B00051F820102868FFF7C7FE08B11120F4E703
:10B4C00039462846FBF77CFF66603869206030000B
:10B4D0004FF001062FD03F7F4FF48E712868FFF7A1
:10B4E0004AFD4FF4A2712868FFF745FD28681A4904
:10B4F000C0F8041328684FEA4711000B40B2002837
:10B5000006DA00F00F0000F1E02080F8141D03E0DF
:10B5100000F1E02080F800142868000B40B200F031
:10B520001F0206FA02F14009800000F1E020C0F895
:10B530008012C0F8001128680421C0F8001500200E
:10B54000A061E06184F8290044F8140FA675ACE707
:10B550001C430020C4CF0200800002002DE9F05FF0
:10B56000054600794FF4017600EB400303EBC00081
:10B57000344B03EB80040020636813B12B68C3F8DD
:10B580000863A3694FF000096BB1E06938B16068E6
:10B5900010B12868C0F804631120BDE8F09FE26193
:10B5A0000120216105E0C4F82490A261E160C4F8A3
:10B5B0001C9094F82910014302D1284600F00BFD9D
:10B5C00060680028286803D0C0F804630020E4E71E
:10B5D0004FF4A2763146FFF7CEFCB2464FF4927B91
:10B5E00059462868FFF7C2FC06464FF48471286864
:10B5F000FFF7BCFC804651462868FFF7B7FC0746BA
:10B6000048EA07003043EBD056EA070007D121464D
:10B61000286800F05FFCA169606A8142E0D8C4F844
:10B6200018900EB10320B8E70FB10F20B5E794F8DA
:10B63000291001200029296801D00860C6E7486068
:10B64000C4E700001C4300202DE9F04705460079BF
:10B650000B4600EB400101EBC000234901EB8004E5
:10B66000284600F043F810B11120BDE8F0874FF0F4
:10B670000008C4F82080A360626184F828804FF439
:10B680008E76474631462868FFF775FC28684FF0EC
:10B690000109C0F808902146286801F09FF8606809
:10B6A00000BBD5F800A00EE094F8280008B10F27E1
:10B6B00016E031465046FFF759FC0028F4D02146E9
:10B6C000504601F08BF8216A60698142F1D331461E
:10B6D0002868FFF74BFC0028F9D02868C0F80C90C8
:10B6E000C4F814803846C0E71C430020007900EB02
:10B6F000400101EBC000044901EB800040690028D3
:10B7000000D00120704700001C430020014902487E
:10B7100001F03ABA48430020002000402DE9F041F2
:10B720000546164600790F46154A00EBC00102EBAC
:10B73000810494F8201011B10820BDE8F08111496E
:10B7400051F820102868FFF77FFD08B11120F4E7B9
:10B7500039462846FBF778FE6660386920601EB1DE
:10B76000397F2846FDF7B6FB28680821C0F8001588
:10B770000020A061E0610121606184F82010DCE715
:10B7800048430020C8CF02002DE9F05F044600794D
:10B790000E4600EBC001DFF8F0A017460AEB81056A
:10B7A0003046FFF749FDB0B168684FF000084FF42C
:10B7B000047910B12168C1F80893A8694FF0000B13
:10B7C00080B1E86948B1686810B12068C0F8049396
:10B7D0001120BDE8F09F1020FBE7EF614FF001085A
:10B7E0002E6102E0EE60C5E9067B00254FF488710A
:10B7F0002068FFF7D1FB4FF4A2712068FFF7CCFB64
:10B800002068C0F83465C0F838752068B8F1000FBA
:10B8100012D0D0F8001241F02001C0F800122079B7
:10B82000D04600EBC0010AEB8100406838B12068C7
:10B83000C0F804932846CCE701210160EFE74FF4FC
:10B84000887A4FF4A27951462068FFF7A0FB07469B
:10B8500049462068FFF79BFB06464FF4927120682B
:10B86000FFF795FB014647EA06000843EBD0227933
:10B8700002EBC20308EB8302C2F818B001B1032542
:10B88000002ED7D00F25D5E7484300202DE9F047FB
:10B8900004460E460079204900EBC00001EB80050C
:10B8A00017463046FFF7C8FC30B1204600F036F8A6
:10B8B00020B11120BDE8F0871020FBE76F61AE607A
:10B8C0004FF49076002731462068FFF765FB4FF470
:10B8D000AC7841462068FFF75FFB2068AA68696979
:10B8E000C0F84425C0F848152068012181606868C7
:10B8F00078B9B14649462068FFF749FB06464146FC
:10B900002068FFF744FB0643F4D000B10F27002066
:10B9100068613846CEE700004843002000790549B9
:10B9200000EBC00001EB80004069002800D001203E
:10B9300070470000484300202DE9F8430446007892
:10B9400000285FD1304E08252F49ADF800500E3148
:10B9500073886A4601F10A00FCF79AFB082806D0B2
:10B960001128F1D0052802D008B1FBF78FFB26483B
:10B9700008210E3000F0BEFB234804210A3000F0FD
:10B98000B9FB267DC52E01D9C52500E03546C52168
:10B990001E48FAF784FD00201C4903E02269125C6E
:10B9A0000A54401CA842F9D31848FDF71BFB17485E
:10B9B000FBF78EFD0027DFF858804FF0010913E0F8
:10B9C0002069C05DFBF794FC05000CD0112DF7D069
:10B9D000B8F800102A4609EB01400EA1FEF788FED8
:10B9E0002846FBF753FB7F1CB742E9D3A18A2069A5
:10B9F000084410F8010C0D2804D10A20FBF778FC4C
:10BA00001128FAD0BDE8F883A02A0020602D00207C
:10BA1000502D00204661696C65642072656365691C
:10BA200076696E67204E5553206D65737361676547
:10BA30002E204572726F7220307825782E200000FB
:10BA400010B550B103280CD10220FCF715FD0028D9
:10BA500007D0BDE81040FBF719BBBDE8104000F06F
:10BA600073BC10BD0078002807D104483B214088F2
:10BA700076DF002801D0FBF709BB7047A02A002021
:10BA8000F0B58BB0002601960D46044689884069C2
:10BA900001AAFBF7CFFD0AA8CDE908600227ADF89F
:10BAA0002070ADF82260218AA88808AAADDF00289E
:10BAB00019D1A069002816D00998FCF781FB00284D
:10BAC00011D0019E0EB101203070182102A8FAF7A2
:10BAD000E6FC8DF808700394A888ADF81000059670
