:020000022000DC
:1060000000000120396202009162020093620200E6
:10601000956202009762020099620200000000008F
:106020000000000000000000000000009B62020071
:106030009D620200000000009F62020051A4020065
:106040009D870200A7620200DD8B0200AB620200A6
:10605000E9950200AF620200598A0200B3620200B1
:10606000B5620200B7620200B9620200BB620200C0
:10607000BD620200BF620200C1620200C362020090
:10608000C562020045700200C9620200CB620200D4
:10609000E1700200CF620200D9C50200D3620200A3
:1060A000D5620200D7620200D9620200DB62020000
:1060B000DD620200DF620200A3620200A36202004E
:1060C000E1620200E3620200E5620200E7620200B0
:0C60D000E9620200EB620200ED620200D7
:1060DC00354936480A1A02D0072291438D46344975
:1060EC0034480A1A06D00722914381F30988022208
:1060FC0082F3148830483149314A00F044F8314871
:10610C003149324A00F03FF831483249324A00F006
:10611C003AF832483249334A00F035F832483349BC
:10612C00334A00F030F833483349344A00F02BF846
:10613C0033483449344A00F026F8344834490022B4
:10614C0000F02CF833483449002200F027F833488B
:10615C003349091A082902DB002202604160314AE6
:10616C0090471F481F49884205D00268043003B489
:10617C00904703BCF7E700208646EC460020002140
:10618C00294A9047FEE7884207D0521A05D0037877
:10619C0001300B700131013AF9D17047884202D0BD
:1061AC0002700130FAE770470000012000E0002087
:1061BC000000012000000120A0E60200DC2A0020E3
:1061CC00802F0020F0620200F06202003CD6020038
:1061DC00A0E60200DC2A0020DC2A0020A0D7020066
:1061EC00A0D70200A0D70200A0D70200A0D70200BF
:1061FC00A0D70200A0D70200A0D70200A0E60200A0
:10620C0044EB0200802F0020802F0020802F0020E4
:10621C00BC510020BC510020C0510020C0510020B6
:10622C00C07100205D620200F5A102000F484FF022
:10623C000701884385460E4880470E48016841F4A3
:10624C0070010160BFF34F8FBFF36F8FFFF740BF3B
:10625C0009480A490A4A884207D0521A05D00378DD
:10626C0001300B700131013AF9D170470000012067
:10627C00A181020088ED00E05CD70200982A002082
:10628C00DC2A0020FEE7FEE7FEE7FEE7FEE7FEE77E
:10629C00FEE7FEE7FEE7FEE7FEE7FEE7FEE7FEE7CA
:1062AC00FEE7FEE7FEE7FEE7FEE7FEE7FEE7FEE7BA
:1062BC00FEE7FEE7FEE7FEE7FEE7FEE7FEE7FEE7AA
:1062CC00FEE7FEE7FEE7FEE7FEE7FEE7FEE7FEE79A
:1062DC00FEE7FEE7FEE7FEE7FEE7FEE7FEE7FEE78A
:0462EC00FEE700BF0A
:1062F00000487047B45100207047000007B5044BB8
:106300000093044A402300F032F803B05DF804FB28
:1063100019630200812F00202DE9F84389461446B5
:10632000B2B10F4B0F4E0325002743F00108224660
:1063300009EB0701002004F067FE0744241A48B95E
:1063400033782BB14FF47A40C047013D02D135700C
:10635000BDE8F88301233370002CE8D1F8E700BFD3
:10636000A0D70200802F0020704704F081BEF0B556
:1063700095B01C46164608460D4601F0EEFD1A9BE8
:106380000D93CDE9086400242346082205A9284678
:106390000A948DF82C400C9401F01BFE079B02938D
:1063A000069B03939DF814308DF8114003F003020F
:1063B000012A1DD1BDF81440059EC3F3C203C4F3E6
:1063C00083148DF81030A20008230EA9284601F08E
:1063D00000FEC6F3952608AB0093224602AB0EA939
:1063E000304600F063FB284601F0BBFD15B0F0BD60
:1063F000022AF8D1BDF81640C3F3C203A4098DF8F0
:1064000010300827082C264628BF08263B4632466F
:106410000EA9284601F0DDFDA41B08AB02AA3146F7
:106420000EA8374400F0A6FB002CEBD1DBE7000000
:1064300010B5054CFFF799FF0421204600F0A6FA9D
:106440000123637210BD00BFDC2A0020037813F023
:10645000030F03F0040202D012B910467047B2B124
:1064600003F00303012B03D0022B09D00120704756
:106470000A6800880232C0F3831002440A60F5E71C
:106480000B684288023303EB92130B60EEE70B6854
:106490004288013303EB92130288F4E72DE9F04FB1
:1064A00087B000230446851C0DF107000F46904677
:1064B0008DF8073001F012F9454806683E60D0E9D2
:1064C0000132134401339B1B824600F21C4600F547
:1064D000836900F21447AB421BD30022B8F1000FCE
:1064E00070D0052363F3070264F38912DAF8001011
:1064F000DAF808309DF807000B4003330D444AF8E2
:106500002320CAF8005001F00DF9012007B0BDE8C2
:10651000F08F0121304601F09DF9484601F0B0F9B5
:10652000384601F0ADF9DAF80400DAF808B0029064
:1065300000EA0B0003300AEB800002A9FFF786FF98
:10654000029B50BB0BEA03020AEB820203F1020C2E
:10655000D2680392013303EA0B0B0AEB8B0B02F0B8
:106560000302012ACDF808C0DBF80C1022D0022A61
:1065700016D08346384601F086F910B1029BCAF85E
:1065800004305946304601F065F9DAE90123134435
:10659000DAF8002001339B1A9DE70BEA0300C9E7F4
:1065A000BDF80E309B0903334FEA114B0CEB9303FC
:1065B0000293DFE7BDF80C30C3F383134FEA114BAE
:1065C0006344F5E7062363F3070264F39F528DE704
:1065D0009430002008B50E4B0E48FF229A6000222E
:1065E000C3F81824C3E90022C3F8142483F8202434
:1065F00001F06CFC38B9084A084B09499B1ADB08C2
:1066000002469A4200D108BD21F822200132F8E763
:10661000943000201CD7020094D602001CD7020040
:10662000982A002030B50A4C71B10A4A0A49121B57
:10663000D20800239A4201D1002030BD31F8235006
:10664000854202D00133F5E7034654F83300F4E7FE
:1066500094D602001CD702009A2A0020094B013967
:1066600003EBC000032909D8DFE801F00A020406A1
:1066700004207047007970474079704700207047C8
:106680000220704794D60200034BD3E90030C31AAE
:1066900058425841704700BF943000202DE9F04720
:1066A00086B0FFF7F1FF0646002840F0F3807A4DF0
:1066B000C5F81804BFF34F8F6868AC68029020409B
:1066C000033005EB800002A9FFF7C0FE029B0746DE
:1066D00000285FD104EA0302991C013305EB820212
:1066E000234005EB8303D268DB68049302F00303C5
:1066F000022B0392029162D1BDF80E3067484FEA37
:106700009319B9F1500FCA4628BF4FF0500A6AF3E7
:106710008F130AF10801ADF80E3001F0EFFB80464F
:10672000002800F0A58001F018FC03A93B460822D0
:10673000404601F025FC029924EA01060136B60024
:10674000B24535D95FFA8AFA7EB3F6B2AAEB060AE9
:10675000214003315FFA8AF4B246514E05EB8101C4
:1067600008235246404601F00BFC36B10AF10803FB
:1067700022463146404601F003FC029B09F1030921
:1067800003EB99030293D5F81834002B4AD1D5F8BE
:10679000104458E02A689A4204D86A60304606B02D
:1067A000BDE8F08704EA03008AE73D493446D7E7AD
:1067B000214003310823524605EB8101DAE7012B22
:1067C00056D1BDF80C303548C3F38311062928BFD4
:1067D000062161F3891302318900ADF80C3001F014
:1067E0008DFB8046002843D001F0B7FB3B460822D2
:1067F00003A9404601F0C4FBBDF80C20C2F383128C
:10680000BB00974203F10803BDD202994A1C214004
:106810000331029205EB81010422404601F0B0FBF6
:106820000137E9E7404601F09CFBFFF72DFF80F0C0
:106830000100C6B2B2E7637A23B1236841461B6800
:10684000204698476468002CF5D1404601F089FB4A
:106850000DF107008DF8074000F040FFD5F818341F
:106860000BB9029B6B609DF8070000F05BFFDCE753
:10687000D5F8104444B90B4B0B491888000440F07C
:10688000020000F06BF8D0E7236820469B68984729
:106890006468EFE7002681E7943000201CD70200EF
:1068A000A0300020B02A0020B4D702002DE9F74F15
:1068B000284C80460F46924601A9012218469B4665
:1068C000D4F80890FFF7EAFD80B3019D0026A91CCB
:1068D0005E4506EB010233D100211F4800F08FFF17
:1068E00080F310006A1C02EA090204EB8202000431
:1068F00005EA0903033340EA1840D06014F8232066
:1069000068F3C50204F8232034F8232066F38912C3
:1069100024F8232054F8232067F39F2244F82320EF
:1069200002F0F80242F0010204F8232094F8203427
:106930001BB1FFF7B3FE0028FBD103B0BDE8F08F19
:1069400009EA020204EB82025AF82630D3600136CB
:10695000BEE700BF94300020B034002000231A4668
:10696000FFF7A4BF07B50123019201AAFFF79EFF1D
:1069700003B05DF804FB07B5CDE9002302236A46A6
:10698000FFF794FF03B05DF804FB00000F4A30B539
:10699000D2F810440023214641B90372D2F81044C2
:1069A0004CB9C2F810044160184630BD0D7A9D42C2
:1069B00005D04968F0E7626842606060F4E701333F
:1069C0000A2BE8D14FF0FF33EEE700BF94300020F0
:1069D000084A38B50123D2F8104482F820341D4605
:1069E00004B938BD2368657220465B6898476468BF
:1069F000F6E700BF94300020037A052B10B50C4653
:106A00000FD0437A23B1084A0849204600F09EFF80
:106A10000749204600F09AFF2046BDE8104000F0EC
:106A20008ABF002AF8D0F3E70FD8020014D802007A
:106A300045DF0200C38873B504460D4633B1144ADE
:106A400000921449144A284600F080FF217A052953
:106A50001CD0637A4BB1A088FFF700FE0F4B1049A2
:106A600053F82020284600F071FF227A0D4BA088B1
:106A700053F822600021FFF7D5FD0B49034632464B
:106A8000284602B0BDE8704000F060BF02B070BDA3
:106A90000FD802001FD8020017D80200DCD702006E
:106AA00014D8020044D8020037D802002DE9F04380
:106AB00085B01F460C9D002306460C46904695F86F
:106AC0000C902B7329463846FFF7B4FFB8F1060F38
:106AD00009D8DFE808F00412181F283340003146B7
:106AE000284600F033FF002229463846FFF784FF8E
:106AF00085F80C9005B0BDE8F08322683146284641
:106B000000F024FFEFE7D4E900233146284600F0E7
:106B10001DFFE8E7A36800933146D4E90023284627
:106B200000F014FFDFE7E3680193A36800933146A8
:106B3000D4E90023284600F009FFD4E72369029333
:106B4000E3680193A36800933146D4E90023284603
:106B500000F0FCFEC7E76369039323690293E368CF
:106B60000193A36800933146D4E90023284600F03E
:106B7000EDFEB8E708292DE9F84F80460E46174686
:106B80001C4636D8002593F80C901D731946104604
:106B9000FFF750FFDFF87CA0DFF87CB0AE422AD9C7
:106BA00018F805205946204600F0D0FE0135082D82
:106BB000F4D11649DFF864B0204600F0C7FE002586
:106BC000AE421DD918F805A0504605F093FF0028E5
:106BD00014BF52462E225946204600F0B7FE01351A
:106BE000082DEDD1012221463846FFF705FF84F834
:106BF0000C90BDE8F88F5146204600F0A7FED5E77F
:106C00000349204600F0A2FEE9E700BF0AD80200CF
:106C100008D8020006D8020000D802000CD80200F2
:106C20002DE9F04F394E87B04FF00009384B1B78F3
:106C30005FFA89F5AB4202D807B0BDE8F08F354B5B
:106C4000D3F800A01AF835000124D6E9001EA0F1FF
:106C50002002C0F1200304FA02F224FA03F31343E2
:106C600004FA00FC009301EA0C030293009B0EEA75
:106C700003030393DDE9022313430AEBC50B41D061
:106C8000009B21EA0C012EEA0303C6E9001301F080
:106C9000D9FE1AF835502049A5F12002C5F120038C
:106CA00004FA02F224FA03F31343D1E900C2AC4020
:106CB000134004EA0C0105930024C3B2CDE900346B
:106CC000009A0491C5F12003A5F1200122FA03F3F3
:106CD00002FA01F848EA03081346AB401F46DDE913
:106CE0000434444508BFBB420CD1DBF804304BB13F
:106CF0009BF801104A1E51425141081A414241413C
:106D00002846984709F1010990E700BFE8340020C0
:106D1000B8340020F0340020E03400202DE9F041A8
:106D20008046204800F0BEFBD0BB0125A8F120041E
:106D3000C8F1200325FA03F305FA04F41C431A4BA7
:106D4000D3E9001205FA08F501EA050602EA04078C
:106D500056EA07001E461DD1404601F073FE134B54
:106D6000D3E9001288B129432243C3E90012D6E9CE
:106D700000231C430E4B0B4819681543C6E9005409
:106D80000022BDE8F04100F047BB21EA050122EAFC
:106D90000402EAE721EA050522EA0404C3E90054F3
:106DA000BDE8F081C0340020E8340020E034002049
:106DB000BC340020042A2DE9F34105460C46164652
:106DC0003AD901F07BFDD8B11C4B1D491D601D4B0C
:106DD000DFF884801C701C4B00221E600023C1E978
:106DE00000231A49C1E90023013CE4B2002603272D
:106DF000FF2C0CD1164A1748002100F0FBFA03E0E3
:106E000001F022FD0028DFD002B0BDE8F08123B2FE
:106E100005EBC30201A992788DF8052015F833001F
:106E20008DF8066042468DF8047001F051FD013C7A
:106E3000E4B20028DCD0E7E70720E5E7F0340020E3
:106E4000E0340020B8340020BC340020E8340020B6
:106E5000216C0200A4D802001D6D020070B5084D1F
:106E6000084E00242B789C4201D3002070BD33686B
:106E7000012113F8340001F09FFD0134F2E700BF57
:106E8000B8340020F03400201FB50021039001AA7F
:106E900044F20100CDE9011100F004F805B05DF8FD
:106EA00004FB000010B572B6FFF792FDFFF7F6FB8A
:106EB0000028FBD1104C11492088000440F001004B
:106EC000FFF74CFD0E4B1B68DB0700D500BE20888A
:106ED0000C49000440F00200FFF740FDBFF34F8F64
:106EE00009490A4BCA6802F4E0621343CB60BFF35E
:106EF0004F8F00BFFDE700BFB02A0020A8D80200D6
:106F0000F0ED00E0B4D8020000ED00E00400FA0566
:106F100049B152B1531E1A4007D18260016083808B
:106F2000C260104670470E2070470920704710B5A8
:106F30008468C2688388121B934208D3C2681340D6
:106F40000268D154C3680133C360002010BD04201F
:106F5000FCE78268C3689A420AD08268838813403B
:106F60000268D35C0B708368013383600020704734
:106F700005207047094A537891780133DBB2994272
:106F800008BF0023117899421FBF0370507818235F
:106F900003FB002014BF043000207047F4340020AD
:106FA00073B5054600240DF107000E468DF8074025
:106FB00000F094FB0DF10600FFF7DCFF90B10670C6
:106FC000094B9DF8062045605A709DF8070000F0B7
:106FD000A9FB24B9054B4FF48012C3F800212046C9
:106FE00002B070BD0424F0E7F434002000E100E0BA
:106FF000024B4FF43C6043F001031847D0D8020025
:1070000038B50C4B0C4C4FF40032C3F880200125EE
:107010004FF48033C4F84833C4F808336560FFF791
:10702000E7FF064BA56000241C60FFF7E1FF044B5F
:107030001C7038BD00E100E0001001401036002057
:1070400001360020F8B51F4B1F491B680025C1F809
:107050004051C1F84451C1F84851C1F84C51C1F8F0
:107060000051C1F804514BB3D1F8044517490968E0
:10707000641A24F07F442F461A68A24209D8A41A41
:1070800015441A7CDE691AB11F74D3E905209047B4
:10709000AEB90F4A0F4B11781B788B4205D10133E3
:1070A000DBB2022B08BF0023137012780A4B43F89F
:1070B00022500A4B4FF48012C3F80021F8BD33462A
:1070C000DAE700BF1436002000100140103600201F
:1070D0000D3600200C3600200436002000E100E0D0
:1070E0002DE9F04FA04AA14913780978A04D9942A3
:1070F00085B03CD00133DBB2022B08BF00231370F4
:107100009C4912789C4B0F6853F822003B1823F0DF
:107110007F4300220B602B6816461446944613B931
:1071200042B12B6006E0196881420ED902B12B6092
:10713000091A19604FF001082B68DFF844A2019387
:107140000027BEB9DFF840B266E0401A0C44D968A7
:10715000C3F800C0D3F81CE031B13A1922F07F42E5
:10716000C3E90121DE611E4601227346D7E70026EE
:10717000B046E1E73446F6697E4A63681268DFF894
:107180000CC2A068991A21F07F41614500F2A580E8
:1071900001442160012222742A680023C4E90133DA
:1071A000E361002A40F0A2802C60CAE75A1C9BF8D9
:1071B0000210D2B291428BF8002004BF00228BF85B
:1071C0000020182202FB03B31A799C68022A1CD003
:1071D000032A12D0012A1FD1207CE8B9D3E9031277
:1071E000A2605A69E2609A69644BA2611B78002B25
:1071F0000CBF0B4603466360BEE700222B681146B6
:10720000002B66D142B12B6006E029680A46894608
:10721000002A59D1002323749BF800309BF80120E9
:107220009A42C3D12B682FB9019A9A4202D1B8F180
:10723000000F43D0002B73D0D3F800A0504D4D4B1E
:10724000D5F804751C68DFF848813E1B98F80030BB
:1072500026F07F4603369BB94FF48033C5F844339C
:10726000C5F80433474B4FF400324FF00109C3F81F
:1072700080211A60C5F80090FFF7BAFE88F80090E8
:10728000B2452CBF5444A41924F07F44C5F84045AE
:10729000D5F80435DB1B23F07F43E41B033324F0D4
:1072A0007F44A3420AD9D5F80435C5F84035FFF725
:1072B0009FFE344B4FF40032C3F800212F4B0022C5
:1072C0001A7005B0BDE8F08F94422CD09146D26977
:1072D0009EE719740122DB6992E7D31A23F07F43FA
:1072E000834234BFC31A0023236053E72168136825
:1072F000994213D8591A1160E26155E7091AD86901
:107300001A4638B1034618688842F7D3401A186005
:10731000184613462160E061DC6112E71346F2E78C
:10732000FFF76EFECAE74C4511D1CB692B6073B9EC
:10733000DFF840E00120CDE90212CAF80800CEF8DB
:1073400000300E4B1870FFF753FEDDE90212136890
:10735000D269C9F81C2012B11068034413602B686D
:10736000994218BF012755E70C3600200D36002042
:10737000143600201036002004360020003600208D
:107380000010014000E100E0F4340020FEFF7F0027
:107390000136002008B5FFF733FE104B00200B220A
:1073A00018809A700E4B18600E4B18700E4B1870A8
:1073B0000E4B4FF48012E021C3F8802183F81413A0
:1073C0001A6002F18042A2F56F22C2F8080583F824
:1073D0001113074BD2F804251A6008BDF4340020BD
:1073E000143600200C3600200D36002000E100E0AD
:1073F00010360020074B9B784BB132B128B103689F
:10740000187C20B959745A617047072070470820CA
:10741000704700BFF43400202DE9F7431E4FBB78BE
:1074200005460E469046A3B398B304292FD9436965
:107430007BB3437C0024012B0DF107000CBF894670
:10744000A1468DF8074000F049F90DF10600FFF75D
:1074500091FDD0B101230370104B4560D3F8043582
:10746000C0E90498C0E902369DF806307B709DF8AB
:10747000070000F057F924B9094B4FF48012C3F804
:107480000021204603B0BDE8F0830424EFE7072481
:10749000F7E70824F5E700BFF434002000100140AE
:1074A00000E100E0064A92783AB130B1426922B177
:1074B000002202740221FFF773BD0820704700BF4D
:1074C000F43400200648074A03780749D35C0122B8
:1074D00013B1043001F0CABF0C3001F0A9BD00BFE8
:1074E000E82A002098360020403600200648074A47
:1074F00003780749D35C012213B1043001F066BF61
:107500000C3001F03FBD00BFE82A00209836002073
:107510004136002037B50578012D05D0002D30D03B
:10752000022D23D003B030BD43681C4C197820468F
:10753000FFF7FDFC78B18DF800500190184B6846BC
:107540001B689847A168E368A2885B1A9A4209D32E
:10755000FFF7B8FFE6E7A268E3689A42F2D08DF839
:107560000000EBE70F4B01221A70DBE7C3688DF8D0
:1075700000500193FFF7A6FF094B68461B68984728
:10758000D0E709490948FFF7E4FC10B9FFF7AEFF5F
:10759000C8E703238DF80030EEE700BF1C3600205B
:1075A000183600202C3600204136002030360020CE
:1075B000F0B51F46234B89B006461A600C460029D9
:1075C0003DD08A8820480968FFF7A2FC002834D102
:1075D000A289A1681D48FFF79BFC00282DD11C4DF6
:1075E0000FCD6C460FC495E80F0084E80F00736957
:1075F0000693337C174A18488DF81C70003318BF67
:1076000001238DF81430737C002B14BF0E2300234C
:107610008DF81530F3680293B368039333680193D0
:1076200069467368009301F045F830B90B4B187048
:107630003368013301D0FFF745FF09B0F0BD0720E3
:10764000FBE700BF183600201C3600203036002033
:10765000D8D8020015750200E82A00202C36002038
:1076600070B5084C014608482678FFF772FC0546BD
:1076700036B100232370FFF725FF08B1FFF704FCA4
:10768000284670BD2C3600201C36002010B501465F
:107690000E48FFF74CFC0446A8B90D480D4A037884
:1076A000D35C63B1043001F0D5FE60B90A490748E4
:1076B000FFF74FFC38B9BDE81040FFF717BF0C309B
:1076C00001F0AAFCF1E7204610BD00BF30360020D3
:1076D000E82A0020983600204136002070B5EFF3EC
:1076E000108672B60C4A946801239CB993600B4BC8
:1076F0000B4DD3F8801029401160C3F88050D3F8A7
:10770000841051604FF0FF32C3F88420047006B932
:1077100062B670BD0370FAE74436002000E100E075
:10772000FC06FFBD084B9A6810B55AB150B9EFF38B
:10773000108172B6054A1C6814605C6854609860D9
:1077400001B962B610BD00BF4436002000E100E080
:1077500037B550E8023F1FFAA3F5C488A54202BF1F
:10776000BFF32F8F00220DE0C48925448489A542F0
:1077700028BF2D1BC3EA054540E80254002CE8D180
:107780004FF001028DF803200193019B9DF8032027
:107790000B6002F0FF0322B14B880068184403B06D
:1077A00030BD1846FBE70A884B889A4209D150E859
:1077B000022FC2EA224240E80223002BF7D1012027
:1077C00070470020704701F01F024B0901219140D2
:1077D00000EB830000F01DB801F01F0301229A4066
:1077E0004B0900EB8300D14300F029B84B0901F0AD
:1077F0001F0150F82300C84000F00100704750E816
:10780000002F0B4640E8003C9CF0000FF7D11046DB
:10781000704750E8003F43EA010240E8002C9CF02A
:10782000000FF6D11046704750E8002F02EA01031E
:1078300040E8003C9CF0000FF6D11046704750E83D
:10784000003F03EA010240E8002C9CF0000FF6D153
:107850001046704750E8003F03EB010240E8002C5F
:107860009CF0000FF6D11046704750E8003FA3EBA4
:10787000010240E8002C9CF0000FF6D11046704742
:107880000121FFF7C6BF0021FFF7CEBF10B590B1B1
:10789000D0E9012301689B1ADBB20A60013BDBB22D
:1078A000FF2B026802D10020107110BD11684C1C22
:1078B00014600B70F2E70E20F7E737B50546002499
:1078C0000DF107008DF80740FFF708FF2A686B6885
:1078D000116899420ED9481E106011F8014CEB68EE
:1078E000A98A01FB0434AB6811791B1ADBB29942F7
:1078F00038BF13719DF80700FFF714FF204603B04F
:1079000030BD37B5054600230DF107000C468DF854
:107910000730FFF7E3FE2A681368591C1160E96815
:10792000641AA98AB4FBF1F41C709DF80700FFF7F4
:10793000F9FE03B030BD826810B504462AB1436930
:107940000168006998470023A36010BD0EB403B519
:10795000039921B104AB01AA019300F06DF802B0C4
:107960005DF804EB03B07047826830B40468551CBE
:107970008560A154D0E901329A4202D330BCFFF7AE
:10798000DABF30BC704700002DE9F84F9946DDE9B9
:107990000A431746824688460A460126BA420FD253
:1079A0004E4538BF4E4613F0010B01D164B9002497
:1079B0000125B9F1010F1AD909F1FF397D43F8E723
:1079C000B2FBF7F20136E9E79B070ED5B9F1000FDC
:1079D0000CBF30252025A642EAD2013C294650465C
:1079E000FFF7C2FF002CF6D1E1E72025F3E7B8FB53
:1079F000F5F39F42E2D9DFF83C90B8FBF5F350462F
:107A000019F8031005FB1388FFF7AEFFB5FBF7F37A
:107A1000BD4207D2BBF1000F02D00CB1A64203D386
:107A2000BDE8F88F1D46E8E720215046013CFFF7EE
:107A30009BFFF2E7F8D802002DE9F74F05461746FD
:107A40008846002900F0318118F8011B49B92B7BC9
:107A5000002B00F02A81284603B0BDE8F04FFFF765
:107A60006ABF252940F0C080002698F800302D2BF1
:107A7000424608F1010823D0302B24D02B2B25D0EF
:107A800000242A2B02F1010123D13B681A1D1B6837
:107A90003A601C440A4613782E2B26D101324FF04F
:107AA000000A104610F8011BA1F1300CBCF1090FBF
:107AB0001DD80A2303FB0A13A3F1300A0246F0E79C
:107AC00046F00106D1E746F00206CEE746F004068E
:107AD000CBE711F8013CA3F130000928DBD80A22DA
:107AE00002FB0434303C0A46CBE74FF0000A12F8A0
:107AF000011B01F0FB0068289046F8D069290ED0E0
:107B00004AD8582964D006D825296DD098F8003075
:107B1000002B99D19BE7632962D06429F6D13A689A
:107B2000D2F80090111D89EAE9723960A2EBE9727E
:107B30004FF0010B092A5BDCD34538BFD3462CB18B
:107B4000B9F1000F01DB710700D5013CB20702D586
:107B5000BAF1000F04D0F30702D4002C4ED1002458
:107B6000B9F1000F52DAC9F100092D212846FFF7BB
:107B7000FBFE06F00302022A05D1BAF1000F02D182
:107B8000002C47D10024CDE9004653460A2249463D
:107B90002846FFF7F9FEB9E773294CD014D87029AD
:107BA000B4D13B681A1D3A60302128461C68FFF7A3
:107BB000DBFE78212846FFF7D7FE00220823CDE917
:107BC000003221461022E3E775292BD078299DD178
:107BD00039680A1D3A60CDE900465346102228E074
:107BE0003B681A1D19783A602846FFF7BDFE8DE7FD
:107BF0000A230BF1010BB2FBF3F29BE7A345AFD2D3
:107C000020212846013CFFF7AFFEA6E77007B0D55C
:107C10002B21ABE7A345B6D230212846013CFFF724
:107C2000A3FEADE73968CDE900460A1D3A60534628
:107C30000A220968ACE73B681A1D3A60F107D3F8DD
:107C4000009020D4B9F1000F25D0484605F01EF968
:107C50000646B44200D9C4B909F1FF3920E02846EC
:107C60000136FFF781FE19F806100029F7D1A64268
:107C7000BFF44CAF002C3FF449AF20212846013C13
:107C8000FFF772FEF3E70026EDE720212846013CCE
:107C9000FFF76AFEDDE74E46DBE72846FFF764FEA6
:107CA00019F8011F0029F8D130E703B0BDE8F08FC3
:107CB00070B508B10368ABB90C4D0D4C0026641BC0
:107CC0001423B4FBF3F4B44201D1002009E02B6883
:107CD00013B901361435F6E7DB69284698470028C2
:107CE000F7D070BDDB69BDE870401847DC2A002082
:107CF000DC2A002029DF704728DF704770B5036851
:107D00009D6886B004460E466DB114220021684677
:107D100005F040F8A3680593237901962BB1012B58
:107D20000DD06846A84706B070BD01238DF800301D
:107D300023690293E368039363690493F1E70223E1
:107D40008DF80030E3681B030293F5E7034B187AC4
:107D50000122B0FA80F05A74400970475036002072
:107D600070B5244D244E2B7A2C463BB92349244828
:107D7000FFF7EEFC306008B9686070BD0223237223
:107D800033681A7972B1012A24D018460321FFF70B
:107D9000B5FF00232372636018491948BDE870409D
:107DA000FFF701BDD3E90520121AB2F5805F28BFA5
:107DB0004FF48052D3E903159208012A014438BFD9
:107DC00001222844FFF796FF50B11128DDD101238D
:107DD0002372D2E7D3E903021044FFF78DFFF3E7E4
:107DE000237C002BC9D10146BDE87040022000F081
:107DF00009B800BF503600206836002064360020E5
:107E0000FC2A002038B5831E012B45D8234C237A49
:107E1000002B41D0022B09D1032830D0204B1B6806
:107E20000022E2601A793AB1012A22D0637C7BBB3E
:107E3000BDE83840FFF794BFD3E905128D1AB5F5B8
:107E4000805F94BF521902F580529A619142EDD140
:107E500002284FF0000308BF19462372104B18BFC9
:107E60000D211868FFF74AFF0E490F48FFF79BFCEA
:107E7000DCE71A6901321A615B699A42E7E7E36855
:107E80000133082B01D8E360D0E70023E360DFE78C
:107E9000BDE8384004F076BB38BD00BF5036002046
:107EA0006836002064360020FC2A002000F0FD0324
:107EB000012B08D1044B00225A74421E50425041FB
:107EC0001874FFF74DBF704750360020FFF7DEBC37
:107ED000F8B546790146721E0546002393422D6887
:107EE00003D30024A64202D8F8BD0133F6E70F6899
:107EF0002846FFF706FD01343946F3E72DE9F8433C
:107F0000868ACD1C0746FFF7D8FC043E354404465C
:107F1000B5FBF6F5F0B14FF48073EDB28380C68007
:107F2000013D076081464FF00008A84512D238464F
:107F3000FFF7C3FC064648B163790133637108F16A
:107F40000108C9F8000007608146EEE72046FFF708
:107F5000BFFF34462046BDE8F88301210430FFF717
:107F600079BC10B5012104460430FFF77EFC10F007
:107F7000FF0F04D12046BDE81040FFF7A9BF10BD98
:107F80002DE9F843C7880546181D8846B0FBF7F46D
:107F9000164607FB14003CB9A7EB0009B14528BF02
:107FA000B14626B9BDE8F8832D68013CF3E70430FB
:107FB000A6EB09064A4608EB0401284404F0C1FE7A
:107FC000B7424C442D68B9464FF0000028BFB14677
:107FD000E7E72DE9F843C7888846191D0546B1FB38
:107FE000F7F4164607FB14113CB9A7EB0109B1459C
:107FF00028BFB14626B9BDE8F8832D68013CF3E7F8
:1080000004312944A6EB09064A4608EB040004F0B3
:1080100098FEB7424C442D68B9464FF0000128BF86
:10802000B146E7E741DF7047064B10B500241C70EE
:10803000054B1C60BFF35F8F0449054800F030F822
:10804000204610BD743600207836002024D9020066
:108050006C36002007B500230DF107008DF80730BE
:10806000FFF73CFBF1EE103A23F09F03E1EE103AEC
:10807000BFF35F8F094B4022C3F884219DF80700AE
:10808000FFF750FB04F08EFA20B1FFF7CBFF03B0EF
:108090005DF804FB20BF40BF20BFF8E700E100E02F
:1080A0000B684A684360934208BF0023016008BF21
:1080B00043607047436843B10268916852680B445B
:1080C0009342436004BF00234360704710B50D49DD
:1080D000A1F59472914201D800200FE08B1ADB10B9
:1080E00003EBD3735B1002EBC30452F833308342CB
:1080F00005D802D204F10802ECE7606810BD214601
:10810000E8E700BF74DA020008B5FFF7DFFF024BB3
:10811000002808BF184608BD39D9020010B504462A
:10812000C0B2FFF7B3FA204610BD00000C4B1B781D
:10813000062B10D10B4B1B681A070CD10A4B186881
:1081400000F0F003302B08D000F0E000A0F1400375
:10815000584258417047002070470120704700BFC7
:10816000E00F00F0E40F00F0E80F00F0094B1B787F
:10817000062B0CD1084B1B681A0708D1074B18684F
:1081800000F0F000A0F13003584258417047002041
:10819000704700BFE00F00F0E40F00F0E80F00F0C0
:1081A00008B5FFF7C3FF28B17D4B7E4A1B68C3F3B8
:1081B00004231360FFF7DAFF10B17B4B7B4A1A6090
:1081C000FFF7B4FF28B17A4B7A4A1B68C3F34233F6
:1081D0001360FFF7CBFF20B1774AD36823F0807399
:1081E000D360FFF7A3FF40B14FF080430022C3F8F4
:1081F0000C21C3F81021C3F83825FFF7B7FF10B1E1
:108200006E4B03221A60FFF7B1FF40B16C4B0522A1
:108210001A6001229A6700229A603F225A60694BD5
:108220001B78062B50D1684B1B6819074CD1674B44
:108230001B6803F0F003502B46D14FF08052644B83
:10824000D2F80414C3F82015D2F80814C3F8241582
:10825000D2F80C14C3F82815D2F81014C3F82C1552
:10826000D2F81414C3F83015D2F81814C3F8341522
:10827000D2F81C14C3F84015D2F82014C3F84415E2
:10828000D2F82414C3F84815D2F82814C3F84C15B2
:10829000D2F82C14C3F85015D2F83014C3F8541582
:1082A000D2F83414C3F86015D2F83814C3F8641542
:1082B000D2F83C14C3F86815D2F84014C3F86C1512
:1082C000D2F84424C3F87025FFF730FF28B1414BA2
:1082D000414A1B6803F04F031360FFF727FF48B1C3
:1082E0004FF08043D3F80024D20744BF6FF001025F
:1082F000C3F80024394B1B68062B08D1384B1B6888
:10830000062B01BF374A136843F480631360364A73
:10831000D2F8883043F47003C2F88830BFF34F8F2F
:10832000BFF36F8F4FF01023D3F80022002A03DB36
:10833000D3F80432002B2FDA2C4B0122C3F804258A
:10834000D3F80024002AFBD04FF010221521C2F8E8
:108350000012D3F80024002AFBD04FF0102315227E
:10836000C3F80422214B1A46D3F800140029FBD08D
:108370000021C3F80415D2F80034002BFBD0BFF362
:108380004F8F19491A4BCA6802F4E0621343CB605D
:10839000BFF34F8F00BFFDE7164B174A1A6008BDA9
:1083A000240300104035014074C007400DF0ADBA01
:1083B000440200103C050040F0ED00E0A005004044
:1083C00010560040E00F00F0E40F00F0E80F00F05E
:1083D00000C0004058020010E40E004030010010C0
:1083E000340100103C17004000ED00E000E00140C7
:1083F0000400FA05102B00200090D003054A4FF02E
:10840000A043105CD3F8043523FA00F0C04300F019
:108410000100704732DE0200044B1A5C01239340D6
:108420004FF0A042C2F80C35704700BF32DE0200A8
:10843000044B1A5C012393404FF0A042C2F8083568
:10844000704700BF32DE020008B50020FFF7F0FFE2
:108450000120FFF7EDFF0220FFF7EAFF0320BDE850
:108460000840FFF7E5BF08B50020FFF7D5FF012062
:10847000FFF7D2FF0220FFF7CFFF0320BDE808403F
:10848000FFF7CABF074A4FF0A041105CD1F804358E
:108490000122824022EA03001340C1F80805C1F816
:1084A0000C35704732DE0200054A4FF0A043105CE5
:1084B000D3F8103523FA00F0C04300F001007047F4
:1084C0002EDE02000D2809D00E2809D00F2809D071
:1084D00010280CBF03204FF0FF307047002070477A
:1084E0000120704702207047014B185C704700BFA5
:1084F0002EDE0200C20708B501460CD54FF0A0439E
:108500000322C3F84C27C3F83C27C3F83C27C3F821
:108510005027FFF799FF8B070AD54FF0A0430C2295
:10852000C3F83427C3F83827C3F83C27C3F84027DB
:1085300008BD000038B5074C051E04F1080318BF3C
:108540001C4623682BB11A6822605B68284698474E
:10855000F7E738BD8436002020B9054B01225A7058
:10856000FFF7E8BF012802D1014A9070F8E7704791
:108570007C36002020B9034B01225A70FFF7DABF86
:10858000704700BF7C36002038B50B4C237883B988
:108590000A486360A3602361E36000F0D3F80546F6
:1085A00004F000F808B900F0D9F801232370284638
:1085B00038BD8525FBE700BF7C36002059850200C9
:1085C00037B50B4C00230DF107008DF80730FFF78E
:1085D00085F8E368013BE360E56815B900F0D2F87F
:1085E000A5709DF80700FFF79DF803B030BD00BFF0
:1085F0007C360020012813B509D018B103281CD0FF
:1086000002B010BD0F4B0122C3F88020F8E70E4CDA
:1086100000230DF107008DF80730FFF75FF823788E
:108620000BB9FFF7B1FFE3689DF807000133E36082
:108630000123A370FFF776F8E2E700F08FF8FFF769
:10864000BFFFDDE700E100E07C3600201FB50378C6
:108650008DF8003043680193037A8DF80830C368C1
:108660000393054A054B684653F8213052F8211010
:10867000984705B05DF804FB903600209436002042
:108680001FB503788DF800304368019383688DF837
:108690000830C3680393054A054B684653F82130F8
:1086A00052F82110984705B05DF804FB9036002081
:1086B00094360020F0B5194B067891F81DE043F888
:1086C0002620174B94460A6943F82620154B03F8D9
:1086D00006E00C4607460FCC89B06D460FC594E8FE
:1086E0000F0085E80F000496BEF1000F0AD0BCF120
:1086F000000F0D4A694608BF0022381D00F09EFD9C
:1087000009B0F0BDBCF1000F084A694608BF00225D
:1087100007F10C0000F076FBF2E700BF9436002072
:1087200090360020983600204D8602008186020097
:1087300000F18040002382B0036003680193019B35
:1087400002B07047044A137923B901211060918067
:1087500018467047852070479C360020084B1A68E1
:10876000D20706D4E02283F800230122C3F8802137
:108770001A604FF080430122C3F81825704700BFEC
:1087800000E100E0044B01221A604FF08042D2F871
:108790001834DB03FBD470470C000040124B1B68FD
:1087A00010B573B14FF48070FFF7C2FF4FF08043F4
:1087B0000122C3F808230D4B587910B95A711B6870
:1087C00098470B4B1B6873B14FF48270FFF7B0FFF3
:1087D0004FF080430222C3F80823044B01201B689A
:1087E000BDE81040184710BD000100409C36002035
:1087F0000401004000F1804000F5C040002382B039
:10880000036003680193019B02B07047800000F190
:10881000A040D0F8003723F44033C0F80037D0F838
:10882000003743EA0141C0F800177047054B4FF08D
:10883000FF32072843F8202084BF1B1883F8482004
:10884000704700BFA436002010B5184C94F858307B
:1088500053BB04F130032021FF22013911F0FF0145
:1088600003F8012BF9D1C8B2FFF7E0FF01310C2961
:10887000F9D1042200210E4804F08CFA0D4BE022BD
:1088800083F806234022C3F880214FF4BE701A609B
:10889000FFF7B0FF084B4FF00042C3F80423012359
:1088A00084F85830002010BD0820FCE7A4360020D2
:1088B000F836002000E100E000600040034B93F830
:1088C0005800003018BF0120704700BFA4360020B8
:1088D000F0B5374B1C1894F93040002C1C4664DA74
:1088E0008D78C5F34005002D0BBF082300230C260F
:1088F0000826B34201D10420F0BD54F8237001379B
:108900003FD1261844F8232086F8303015B9E218F4
:1089100082F848008A78550713D4D60733D58200E9
:1089200002F1A042D2F8005725F00205C2F8005724
:10893000204EC50800F007070122BA40775D3A4390
:1089400072558A780D7812F0020225D09B0003F14F
:10895000804303F5C0430202D3F8101521F44731D8
:1089600021F44071C3F810152D04D3F8101502F44A
:10897000F85205F440352A430A43C3F81025002075
:10898000BAE70133B5E74D7800F5E0724FF0A04645
:10899000AD0046F82250CBE7083B234493F8501033
:1089A00041EA851583F85050E9E70820A4E700BFA5
:1089B000A4360020F836002038B5204C251895F94B
:1089C0003020072A18DD224492F848309B09032BF7
:1089D0000DD14FF0A043D3F81035C34013F0010F71
:1089E0000CBF02210321BDE83840FFF70FBF012B68
:1089F00014BF03210221F6E7D3B2072B1CD8930042
:108A000003F1804303F5C043D3F8100540F00100A3
:108A1000C3F8100502F14000800080B2FFF7EAFEC3
:108A200051B195F9303054F823302BB1012303FABA
:108A300002F2034BC3F8042338BD00BFA436002064
:108A4000006000404FF0A043D3F8103523FA00F047
:108A500000F00100704700002DE9F04F85B00024C0
:108A60005A4D01944FF48072012102F1804303F5C5
:108A7000C04390B21B68012B06D1D5F804330B42DA
:108A800002D0FFF7B7FE0C430432B2F5907F4FEAF5
:108A90004101EAD14E4B1B68012B0AD14FF4BE7045
:108AA000FFF7A8FE4FF0A04344F00044D3F8103580
:108AB000019314F0FF0F1AD0464F002501263442CF
:108AC00010D0AB0003F1804303F5C043D3F8100589
:108AD000D3F8101557F8253023B1C1F30141C0F385
:108AE000042098470135082D4FEA4606E7D1002CAF
:108AF00064DA00224FF0FF33CDE90223354D012720
:108B00004FF0000A344E54464FF0A04816F9012B9E
:108B1000531C46D0D2B222F0C0094FEAD90104A8B2
:108B2000084402F0070310F804CC07FA03F31CEA28
:108B3000030F36D005EB090C92099CF930C055F8AB
:108B40002CB0BBF1000F0AD1032A2AD10DF1080E77
:108B50001EF801C04CEA030C0EF801C001E0032A24
:108B6000F4D009F5E07110F80C0C58F821101842F7
:108B7000C1F3014105D0022913D1032A0BD11146BB
:108B800004E003290DD1032A05D102214846FFF74D
:108B90003DFE0134E4B2BBF1000F02D0114648465D
:108BA000D8470AF1010ABAF1040FAFD134B14FF03E
:108BB000A043019AD3F81035934202D105B0BDE825
:108BC000F08F0193029B03939AE700BF006000407F
:108BD0007C610040A4360020F4360020014B1B6865
:108BE000184700BF003700200E4B984237B50D469E
:108BF00002D0002003B030BD00230DF107008DF836
:108C00000730FEF76BFD084B1C7914B901221D607B
:108C10001A719DF80700FEF785FD002CE9D01120A0
:108C2000E8E700BF00200040003700200023435049
:108C300082B043580193019B02B070470A4610B5B9
:108C40004FF48E71FFF7F2FF136A9168C95C136AE3
:108C500001331362C0F81C1510BD024608B54FF46D
:108C600092710068FFF7E2FF4FF484711068FFF71C
:108C7000DDFF136801221A6008BD8B690A4610B532
:108C80004FF4847123B9FFF7D1FFD0F8183510BD28
:108C9000FFF7CCFF536AD168D0F81805C854536A5F
:108CA00001335362F3E700001FB501238DF8003054
:108CB000044BCDE90110D3E900126846904705B096
:108CC0005DF804FB0837002030B54C4AD2F8043375
:108CD00013F4007F85B015464FD0D2F82431002B15
:108CE0004BD04FF492711046FFF7A0FF4FF4017381
:108CF000C2F80833424B93F8291009B90121516099
:108D00003E4902228DF80020D1F88024C1F8802449
:108D100003929A690292DA6801920022C3E906225C
:108D20006846D3E9001290473448D0F81C315BB153
:108D300033490A6A4B699A420A464BD291F8283065
:108D4000002B47D1FFF77AFF2C4AD2F8443193B178
:108D50004FF4A2711046FFF769FF294B93F82910D1
:108D600009B1012111609A692AB100229A61586AF9
:108D7000D968FFF799FF05B030BDD5F804335B071C
:108D8000D2D5D5F80831002BCED01D4C1B4821463A
:108D9000FFF773FF636AA2699A422346C4D1E2696E
:108DA000E1684AB12369E3600023606AA261E3617C
:108DB0006362FFF779FFB7E794F829200AB9012227
:108DC0006A600E4A4FF40170C2F8080300229A61EB
:108DD000586AEEE74FF48E710848FFF727FF516994
:108DE0000029B1D00023029191688DF800300191E3
:108DF00053616846D2E900139847A5E70020004078
:108E0000083700202DE9F8435A4B047991462C226B
:108E100002FB0432064692F82A200D469846002AA4
:108E200040F0A38054490068FFF7DEFE07460028A3
:108E300040F09D8029683368481C0BD04FF0A0405B
:108E400001228A40C0F8082501F5E0724FF0030CBA
:108E500040F822C06868421C1FBF00F5E0724FF066
:108E6000A04C4FF0000E4CF822E0AA6995F814C00F
:108E7000C3F824256A7DBCF1010F4CEA0202C3F855
:108E80006C25C3F81405C3F80C151DD1AA68511C34
:108E90001FBF02F5E0714FF0A0404FF0000C40F80A
:108EA00021C0E968481C0BD04FF0A04C012088403D
:108EB000CCF8080501F5E0704FF0030E4CF820E007
:108EC000C3F80815C3F810252C23634308EB0302ED
:108ED000C2F804902A6948F80320B9F1000F31D094
:108EE0004FF48E7130682D7FFFF7A0FE30684FF48D
:108EF000A271FFF79BFE3268204BC2F80433120BBD
:108F000053B2002BA8BF03F160404FEA53134FEA5E
:108F10004511BABF1A4802F00F0500F561404FEA4B
:108F20008303C9B203F16043B4BF415580F8001315
:108F300003F5614302F01F02012101FA02F2C3F8B6
:108F400080211A6033680422C3F800252C2303FB18
:108F500004830022C3E9062283F829205A610122F2
:108F600083F82A203846BDE8F8830827FAE7112756
:108F7000F8E700BF08370020C98C0200800002001B
:108F800014ED00E02DE9F843224F06794FF02C094B
:108F900009FB067480466569002D37D16261A160C6
:108FA00025624FF48E71006884F82850FFF73EFE6A
:108FB000D8F80000012383602146FFF73FFE636875
:108FC000A1462BBBD8F80050226A63699A4212D39B
:108FD000D8F80030D3F81C21002AFBD00122DA6037
:108FE00000202C2303FB067600237361BDE8F88381
:108FF00094F8283043B9D5F81C31002BF8D04946F5
:109000002846FFF71BFEDFE70F20EAE71120EDE718
:109010002846EBE7083700200379044A2C2101FB9E
:1090200003235869003018BF01207047083700201B
:109030002DE9F843384E05792C2303FB05630746D9
:109040005C6824B103684FF40170C3F808032C2353
:1090500003FB0563986950B1D86900283ED024B15C
:109060003B684FF40172C3F80423112034E09A6185
:10907000D9605862D8612C2303FB056393F829302B
:109080001BB910B93846FFF7E8FD4FF02C0909FB72
:1090900005683868D8F80430002B34D14FF4A27139
:1090A000FFF7C4FDC1463868D0F82431D0F8082154
:1090B000D0F84441B2B90CB9002BF4D02C2202FBF9
:1090C00005650022AA611BBB24BB95F829103B68EB
:1090D0000122B1B11A600020BDE8F8831961DA619C
:1090E0000120C8E7002BE9D1002CE7D14946FFF762
:1090F000C4FDD8F82430D8F818209A42D3D8234693
:10910000DCE75A60E7E74FF40173C0F80433E2E7A5
:109110000320E1E70F20DFE708370020002343505A
:1091200082B043580193019B02B070471FB50123E1
:109130008DF80030054B8DF8080001916846D3E9A1
:109140000012904705B05DF804FB00BF34370020E3
:109150007FB5384AD2F82461002E49D010464FF42A
:109160009271FFF7DBFF02238DF80030D2F88034D4
:10917000C2F880340393D2F83C358DF808302E4B7A
:10918000DA6801920022C3E906226846D3E9001298
:109190009047284AD2F8443173B14FF4A271104677
:1091A000FFF7BCFF244B996931B100219961D2F8D6
:1091B0003C05D968FFF7BAFF1E4AD2F82031ABB19F
:1091C0004FF490711046FFF7A9FF1B4B596969B125
:1091D000D2F84C158DF80810002299688DF80020FF
:1091E00001915A616846D3E90012904704B070BDFE
:1091F000D2F81031002BCCD04FF488711046FFF715
:109200008DFF0D4BD2F83C0599698842C1D1DC69CC
:10921000D96864B1D2F8005225F02005C2F8005296
:109220001A699C61DA60DE61FFF780FFB1E79C613B
:10923000FAE700BF00200040343700202DE9F84352
:109240005E4B06799146242202FB0632044692F8D0
:1092500020200D469846002A40F0AB80584900680F
:10926000FFF7C2FC0746002840F0A5802968236864
:10927000481C0BD04FF0A04001228A40C0F80825BE
:1092800001F5E0724FF0030C40F822C06868421C00
:109290001FBF00F5E0724FF0A04C4FF0000E4CF8ED
:1092A00022E0AA6995F814C0C3F824256A7DBCF1B0
:1092B000010F4CEA0202C3F86C25C3F80C15C3F881
:1092C00014051DD1AA68511C1FBF02F5E0714FF0B3
:1092D000A0404FF0000C40F821C0E968481C0BD0BA
:1092E0004FF0A04C01208840CCF8080501F5E07053
:1092F0004FF0030E4CF820E0C3F80815C3F8102512
:109300002423734308EB0302C2F804902A6948F847
:109310000320B9F1000F3BD04FF4887120682D7FF6
:10932000FFF7FCFE4FF490712068FFF7F7FE4FF453
:1093300092712068FFF7F2FE20684FF4A271FFF7E8
:10934000EDFE22681F4BC2F80433120B53B2002B00
:10935000A8BF03F160404FEA53134FEA4511BABF6B
:10936000194802F00F0500F561404FEA8303C9B2C6
:1093700003F16043B4BF415580F8001303F5614326
:1093800002F01F02012101FA02F2C3F880211A60E3
:1093900023680822C3F80025242303FB0683002248
:1093A000C3E906225A61012283F820203846BDE82D
:1093B000F8830827FAE71127F8E700BF34370020C1
:1093C000519102001003020014ED00E001F060432F
:1093D000B3F1005F2DE9F041074632D11C4B06790D
:1093E000242505FB063598466C6964BB6A61A96053
:1093F00000684FF49071FFF791FE4FF4AC7138683C
:10940000FFF78CFE3B686A69A968C3F84415C3F886
:10941000482501229A606A68BAB9D3F82011D3F8B6
:10942000582149B9002AF8D00F20242303FB0686CF
:1094300000237361BDE8F081002A14BF0F200020D3
:10944000F3E71020F6E71120F4E72046F2E700BF2B
:10945000343700200379044A242101FB032358698F
:10946000003018BF0120704734370020F8B501F0F4
:109470006043B3F1005F04460F465FD10379304D7E
:10948000242101FB0351486820B121684FF4047680
:10949000C1F80863242101FB03539E6956B1D969C1
:1094A00000293AD020B123684FF40472C3F8042392
:1094B000112031E09A61DF60DE614FF4887120682D
:1094C000FFF72CFE4FF4A2712068FFF727FE2368F8
:1094D000C3F83475C3F838251EBB01221A60217900
:1094E000242202FB0152526812BBD3F81001D3F8B8
:1094F0004421D3F82441104302D1002CF5D0024678
:10950000242303FB015500239C4214BF032018466B
:109510009A42AB6118BF0F20F8BD1F61DA610126C6
:10952000CBE7D3F8002242F02002C3F80022D6E7AE
:109530004FF40472C3F804230020EDE71020EBE79A
:10954000343700207FB503788DF8043043680293E8
:1095500083688DF80C30C368049303698DF8143068
:10956000054A064B01A853F8213052F821109847BC
:1095700007B05DF804FB00BF5837002064370020B7
:10958000F0B50646944616F8047B134A42F827C005
:10959000124A42F82730124B0D460FCB85B06C466D
:1095A00084E80F002B6800932B798DF805306B79D8
:1095B0008DF80630AB680293BCF1000FAB89ADF8B3
:1095C0000C30084A3B4608BF00222146304600F0D6
:1095D00037F805B0F0BD00BF6437002058370020D1
:1095E00058DE0200459502004FF0402382B0D3F8C8
:1095F0001831E3B10F4B00221A601B680193019BE5
:109600000D4BD97FFF2907D0987F01228A404FF068
:10961000A04148B1C1F80C2500225A771A72D3E94B
:109620000021064802B01047C1F80825F4E702B04F
:10963000704700BF18410040703700207837002085
:109640002DE9F74F9B4603796F4E00934FF02409A5
:1096500009FB03F906EB090A07469AF81C300C4689
:109660009046002B40F0CC80056868492846FFF7FB
:10967000BBFA002840F0C68046F80980CAF804B05A
:1096800094F800E094F80CC04FF0A042012303FAD4
:109690000EF3BCF1010F94BFC2F80C35C2F80835C7
:1096A0000EF5E073012142F823106378FF2B1FBFF2
:1096B0009940C2F80C1503F5E0714FF0030918BF8B
:1096C00042F82190A27808BF4FF0FF33FF2A1FBF56
:1096D00002F5E0714FF0A0494FF0040A49F821A0CB
:1096E000397901914FF0240909FB016618BF9346AF
:1096F00086F82020E27808BF4FF0FF3BFF2A1AD0FF
:1097000094F804904FF0010A0AFA02FA4FF0A046CA
:10971000B9F1000F6BD0C6F80CA502F5E07A032171
:1097200046F82A10384E01994FF0240A0AFB0161CD
:10973000CA7781F81E90C5F808E5C5F80C35A3680E
:10974000C5F810B5C5F82435637B003318BF012375
:10975000BCF1020F4ED0BCF1030F4ED0BCF1010F93
:1097600001D143F00203C5F85435A379C5F8C035DB
:10977000B8F1000F02D04023C5F804330723C5F821
:109780000035B8F1000F26D03A686179120B53B258
:10979000002BA8BF03F16044D2B24FEA5313B8BF05
:1097A00002F00F054FEA4111B4BF194C04F56144B2
:1097B0004FEA8303C9B203F16043B4BF615584F833
:1097C000001303F5614302F01F02012101FA02F2C6
:1097D000C3F880211A600C4B0099242202FB01334C
:1097E00000225A7701221A7703B0BDE8F08FC6F83D
:1097F00008A592E743F00403B5E743F00603B2E798
:109800000820F1E71120EFE770370020E99502000A
:1098100014ED00E02DE9F3410579474E24236B4315
:109820001446F2180F46517F8046002940F081808F
:10983000F35823B114F0140F04BF0123537797E8B2
:109840000F004FF0240C0CFB056C0CF10C0E8EE895
:109850000F009CF81F20FF2A08D09CF81E1001233F
:1098600093404FF0A042C1B1C2F80835396821B128
:1098700001F06043B3F1005F06D1BA6882B102F033
:109880006043B3F1005F0BD0242303FB0565002385
:109890006B77102002B0BDE8F081C2F80C35E5E727
:1098A000D8F800307868C3F84415C3F84805F9685B
:1098B000C3F834250022C3F83815C3F81821D3F8AB
:1098C00018210192019A14F0010218BF0122C3F875
:1098D000502514F0020218BF0122C3F840252207C8
:1098E0005CBF01221A6124226A43B258B2B9D3F88C
:1098F0001821002AFBD0242303FB0565EA7FFF2AF9
:1099000007D0A87F012393404FF0A04218B1C2F8BE
:109910000C350020BEE7C2F80835BBE714F00400A0
:109920004FF0400202D0C3F80823F2E7C3F8042343
:10993000B0E71120AEE700BF703700200220FEF72D
:10994000A1BD00002DE9F04781460D46FEF7BAFDA6
:109950000328044604D8012D04D025B3022D2FD0AE
:10996000BDE8F087194D47003A18A918AE5C4A784F
:1099700052B1DFF86880164842464FF40041FDF7C7
:109980004BFD08B988F800903B192B449A78114B8D
:109990001A55002EE4D0104B1B68002BE0D0304647
:1099A000BDE8F04718470A48FDF77CFD074B04EB7C
:1099B000440213449E78074B1B5DB342D0D1E8E7C5
:1099C000024B00EB40041C446678E2E7F8370020C5
:1099D000B8370020113800200C38002094370020C0
:1099E00002210078FFF7AEBF08B5094B1B7853B1D1
:1099F0000020FEF71DFD0120FEF71AFD0320BDE843
:109A00000840FEF715BDBDE80840FEF71DBD00BFCC
:109A100095370020F8B5794C237805461BB1002313
:109A20002370FFF7E1FF172D00F28480DFE805F0D7
:109A30000C13133F5061727C8489848991969696A9
:109A40009696C0C5CDD5E0E0FFF7CEFF6C4B002465
:109A50001C702046F8BD0020FEF7D0FCF8B10020B5
:109A6000FEF7E6FC022D0CBF4FF4E1614FF47A6182
:109A7000634B1D704FF400404FF4FA740025E0FB77
:109A800001454FF47A7200232046294602F00AFF6E
:109A9000002201465B48BDE8F840FDF7BDBCFEF77B
:109AA000BBFC022D0CBFC8214FF4C871E0E70020B9
:109AB000FEF7A4FC40B10020FEF7BAFC4FF4487159
:109AC0004F4B03221A70D5E7FEF7A6FCC821F7E733
:109AD0000020FEF793FC38B10020FEF7A9FC4FF4FC
:109AE0007A61474B0422EDE7FEF796FC4FF4C8710C
:109AF000F7E70020FEF782FC48B10020FEF798FC53
:109B00003F4B05221A7041F69A110022C2E7FEF778
:109B100083FCF5E70020FEF7B5FC394B06221A70EE
:109B2000002240F6CD41B5E70020FEF775FC344B2E
:109B300007221A7000248CE701202070FEF7A2FC97
:109B4000EEE701202070FEF79DFC00224FF48041DB
:109B5000A0E7FEF788FC2A4B0C22EAE72A482B4EA6
:109B6000FDF7A0FCD5F1110504461CD0D8B9012D94
:109B700013D0C8235D434FF400474FF4FA7000211F
:109B80004FF47A720023C7FB050102F08BFE2246D8
:109B900001461D48FDF740FC04460220FEF73CFC50
:109BA0000123337055E70220FEF742FC0023F8E75B
:109BB000FFF71AFF124B1222BBE7FFF715FF002039
:109BC000FEF72AFC0E4B1322B3E7FFF70DFF01202F
:109BD000FEF722FC0A4B1422ABE7FFF705FF00203B
:109BE000FEF71AFC0120FEF717FC054B1522A0E733
:109BF000FEF739FC024B1D709CE700BF08380020BF
:109C000010380020D83700209837002095370020E2
:109C1000044B1B68DB0703D5034B1878FFF7FABE2C
:109C2000704700BF0438002010380020032801D8F6
:109C3000FEF73ABC00207047044B1B6813F0010389
:109C400001D0FFF7E7BE1846704700BF0438002078
:109C500038B51C4B18601C4B10F002040546196007
:109C60001AD01A4B1A480E221A700F22DA701022DC
:109C70009A7111225A72042140F26662FDF79AF835
:109C8000044648B9FDF7EAF8044628B90146114AE6
:109C90001148FDF7AFFB0446EB0711D50120FEF795
:109CA00029FC6CB921460D4A0D48FDF7A3FB04467B
:109CB00030B90C4A0C480121BDE83840FDF79ABB89
:109CC000204638BD043800200C380020F83700202A
:109CD00070DE0200E199020094DE0200119C020095
:109CE00098DE02003D99020090DE0200032813D89E
:109CF000012A0BD1012908D100F10E02D2B200EBEA
:109D000040000C4B1A540020704700220129F6D065
:109D10004BB24BB1022901D007207047054B00EB35
:109D2000400018444270EEE7024900EB400008444E
:109D30008270E8E7F8370020032808B512D8FEF74C
:109D4000D3FB800000F1A040D0F8003723F440336B
:109D5000C0F80037D0F8003743F44033C0F800377C
:109D6000002008BD0620FCE708B5012202210020E2
:109D7000FFF7BCFF08B1072810D1072202210120FC
:109D8000FFF7B4FF08B1072808D100210A220846CE
:109D9000FFF7ACFF10B1072808BF002008BD000086
:109DA0000388102B10B502D0112B1ED010BD1A4CF9
:109DB0002168B1B901220846FFF798FF08B10728CA
:109DC00024D1072202210120FFF790FF08B10728C4
:109DD0001CD1042202210020FFF788FF08B10728C8
:109DE00014D1236801332360E0E70B4A1368013B79
:109DF0001360002BDAD1FFF7B7FF0028D6D0074B4E
:109E00001B68002BD2D0BDE810401847034B1B68DD
:109E1000002BE6D09847E4E71C38002018380020D3
:109E200008B50020FFF788FF08B1062806D10120F9
:109E3000FFF782FF10B1062808BF002008BD000010
:109E40000D4B10B518600C4629B10120FFF7EEFE4E
:109E500040B102232370094B1B6853B9BDE8104081
:109E6000FFF782BFFFF7E2FE08B10B23F2E7207095
:109E7000F1E7002010BD00BF183800201C3800207A
:109E800076DF70477ADF70477CDF70477FDF70478F
:109E90008FDF7047B1DF704733DF7047FCF7F4BFE7
:109EA00008B50020FFF7C8FE08B1FCF7EDFFFFF78B
:109EB000B7FF08B1FCF7E8FFFFF7EEFF18B1BDE808
:109EC0000840FCF7E1BF08BD0388212B13B5044609
:109ED00037D01DD8112B26D0132B3AD0102B2ED1D2
:109EE000244B25491888000440F00300FCF736FD98
:109EF0000720FFF7A1FE08B1FCF7C6FF1F4BA188A2
:109F00001F48198002F00FFAC8B1FCF7BDFF16E038
:109F1000522B26D0562B01D03B2B10D11321A088D9
:109F2000FFF7AEFFF0E7134B16491888000440F026
:109F30000300FCF713FD114B4FF6FF721A8002B0BD
:109F400010BD002301A98088ADF80430FFF7A0FF01
:109F5000DAE70A4800231A4685210088FFF796FFB2
:109F6000D2E7064800231A4619460088FFF792FFF9
:109F7000CAE700BFB02A0020B4DE0200222B002076
:109F8000EC3C0020BEDE02000C4B4A881B889A4243
:109F900012D10A8840F677239A420DD18B88084A5D
:109FA0000849033B9BB21380074A108800041A46F5
:109FB00040F00300FCF7DFBC704700BF222B0020FD
:109FC000202B0020CBDE0200B02A002008B5037849
:109FD0004BB9054B3B211888FFF752FF18B1BDE87C
:109FE0000840FCF751BF08BD222B0020072808B508
:109FF00013D00A280DD0042819D10D4B132118882D
:10A00000FFF73EFF30F0080311D0BDE80840FCF731
:10A010003BBFBDE80840FFF743BF054B1A884FF62A
:10A02000FF739A4203D1034801F075FCEAE708BDCB
:10A03000222B00201C3C002008B548B103280BD17E
:10A040000220FFF7F9FD38B1BDE80840FCF71CBF5E
:10A05000BDE80840FFF724BF08BD00000378012BCE
:10A06000F7B530D01BB1022B2DD003B0F0BD184C8A
:10A07000184D20782844FDF7F3FA23780133DBB23A
:10A080001D44237015F8012C0A2A03D0124A1288A5
:10A090009A42EAD8114D0F4E114F2378ADF8063091
:10A0A0000DF106022B883146384602F0E1F8082807
:10A0B00006D01128F1D0052802D008B1FCF7E4FE43
:10A0C00000232370D1E74068FCF7DEFECDE700BF38
:10A0D000193C0020253B0020202B0020222B0020B3
:10A0E000242B002003782DE9F7430446002B5AD196
:10A0F0002E4D2F4E2F4F0823ADF806300DF10602DE
:10A100002B883146384602F0B3F8082806D01128CB
:10A11000F1D0052802D008B1FCF7B6FE082124488A
:10A1200000F032FD40F2053200212348277D02F085
:10A1300031FE214A002304E02169C95C02F8011BB9
:10A1400001339F42F8D81C48DFF87080DFF8709028
:10A1500000F0B2FB3946184800F07CF90025AF4208
:10A160000BD8A28A2369134413F8013C0D2B1AD192
:10A170000A20FDF78BFA1128F9E72369585DFDF7EE
:10A1800085FA064668B11128F7D0B8F80000000437
:10A1900040F0010032464946FCF7E4FB3046FCF74C
:10A1A00073FE0135DBE703B0BDE8F083222B00200E
:10A1B000142B0020242B002020380020B02A00205F
:10A1C00071DF0200FCF760BE08B50849084801F0DD
:10A1D000FFFD08B1FCF758FEF721054801F00CFE21
:10A1E00018B1BDE80840FCF74FBE08BD899F0200CA
:10A1F000D43C002000B57F4D0FCDB1B005AC0FC4ED
:10A2000095E803007C4B7D4A01934FF4807384E80A
:10A210000300CDE903230293794A072301A905A886
:10A22000FDF7C6F908B1FCF72FFE0F21754800F0C5
:10A23000ABFC4FF400410020FCF7CCF908B1FCF76F
:10A2400023FEFCF7F5F8FDF7A5F808B1FCF71CFEB6
:10A250006D490320FFF7FCFC08B1FCF715FE05A9CA
:10A260000020FFF7EDFD08B1FCF70EFEFDF7DCFE68
:10A2700008B1FCF709FE02F00FF908B1FCF704FE83
:10A28000002305A90120059302F0DCF908B1FCF7D1
:10A29000FBFD05A802F09CFA08B1FCF7F5FD1123BF
:10A2A0005A488DF8043002F0F1FD584982B201A8F5
:10A2B000FFF7EAFD08B1FCF7E7FD0021082205A839
:10A2C00002F068FD52494FF0C87305A8CDE90513A7
:10A2D000FFF7D8FD08B1FCF7D7FDFFF775FF4D4B31
:10A2E0004D48059305A902F00CF808B1FCF7CCFD28
:10A2F000042200210DEB020002F04CFD474B4848C0
:10A30000019301A901F0F0FE08B1FCF7BDFDAC22FC
:10A31000002105A802F03EFD02238DF814304FF411
:10A32000A063404AADF816300123ADF860301992B1
:10A330008DF89030402244F25063CDE9272305A9DF
:10A34000394B3A482E9301F015F908B1FCF79CFD02
:10A350000121364801F00BF91C22002105A802F06A
:10A3600019FD00234FF42032CDE90532ADF822303B
:10A370004FF470228DF824302D4B07920A9303225C
:10A380002C4B8DF8202005A80B9301F0E1FB08B1C0
:10A39000FCF77AFD1421284800F0F6FB00F07EFA65
:10A3A00000F03EFA00F060FD1321244800F0ECFBC1
:10A3B00000F06EFC0B21224800F0E6FB214802F081
:10A3C00019FC214B21491888000440F00300FCF7D8
:10A3D000C5FA0321154801F03FF908B1FCF754FD17
:10A3E00000F022FB00F0CAF8FCF758F9FDF732FE46
:10A3F000F6E700BF9CDE0200F83C0020F83D00209C
:10A400005DA00200E7DE0200ED9F0200F7DE020021
:10A4100010003C009D9E0200EC3C0020E5A00200E4
:10A42000242B00201C2B002039A002001C3C002003
:10A43000CD9F0200C5A1020001DF020016DF02006D
:10A440002ADF020036DF0200B02A002048DF0200C7
:10A4500000F002BA2DE9F047344E354D042204468F
:10A4600088460146304602F06CFC002731493771BE
:10A47000304602F0E4FC78BB26796779DFF8D490A7
:10A48000A8F1060A06341FFA88F8F6B940F2063237
:10A490003146294802F055FC2748A9F80060524689
:10A4A000214602F04EFCB9F80020063A424400234F
:10A4B000BE42A9F800202B7005D10B211F4800F0E7
:10A4C00063FB01232B70BDE8F087B9F800301A4810
:10A4D000524621461844E4E71949304602F0AFFCE1
:10A4E000014658B94FF48072164802F02AFC4246E1
:10A4F000211D144802F025FC0223E3E712493046EF
:10A5000002F09DFC08B90523DCE71049304602F053
:10A5100096FC08B90323D5E70D49304602F08FFCBD
:10A5200008B90423CEE72F70CDE700BF32430020E7
:10A53000F83E00209CDF0200F93E0020A1DF02006F
:10A54000ADDF020020420020B2DF0200B7DF0200D0
:10A55000BCDF02003043002008B500F06DFCBDE810
:10A56000084000F053BB08B500221146104600F029
:10A57000AFFBBDE8084000F049BB000010B5124C2D
:10A580002378013B0022042B1BD8DFE803F0030AE9
:10A590000F1317000D48FFF7DFFF00232370012082
:10A5A00010BD0B48227000F01DF8F6E7227000F095
:10A5B000FBF8F2E7227000F009F9EEE7FFF7D3FFAE
:10A5C000EBE70020ECE700BFF83E0020F93E00205A
:10A5D0002042002008B500F053F9BDE80840FFF71D
:10A5E000CDBF00002DE9F04F6B4F9DB00446A61D76
:10A5F000304602F04BFCDFF8A0C15FFA80F814AAE5
:10A600000CA904A80825013D1CF8013B40F8043BB7
:10A6100015F0FF0541F8043B42F8043BF3D1DFF8A5
:10A620008091EBB2984557D8DFF87081032620223D
:10A630000CA904A802F085FB202214A90CA802F0A2
:10A6400080FB14AA39460823013B11F8010B42F89C
:10A65000040B13F0FF03F7D1504A14A90CA80DF115
:10A66000100C082551F8043B50F8049B5CF804EBEF
:10A670001B0443EA0923013D43EA0E0315F0FF05DD
:10A6800042F8043BEED1DFF81891454841460823D3
:10A6900051F8042B013BEA4013F0FF0320F8022B92
:10A6A000F6D1E378029323790193637900934846C6
:10A6B00023786278A17800F08FFB00F0A7FA64207D
:10A6C000FFF788FF002864D10135082DDDD1013E58
:10A6D00016F0FF06ABD18AE720220CA904A802F0ED
:10A6E00030FB202214A90CA802F02BFB0DF1500B1B
:10A6F0004FF0000A307800F0CBF82A4B03EBC00093
:10A7000010F80A304BF8043B0AF1010ABAF1080FBD
:10A71000F0D1224914A80DF1300C0DF1100E534662
:10A7200050F8042B5CF804BB5EF804AB120442EA58
:10A730000B22013B42EA0A0213F0FF0341F8042B0B
:10A74000EED19A4616481549082351F8042B013BCF
:10A7500022FA0AF213F0FF0320F8022BF5D1E37876
:10A7600002932379019363790093484623786278B2
:10A77000A17800F031FB00F049FA6420FFF72AFFCE
:10A7800038B90AF1010ABAF1080FDBD101350136F7
:10A7900047E71DB0BDE8F08F302C002000420020BC
:10A7A00020430020482B002010B5074C00F076FB1A
:10A7B000204600F041FB00F029FA6420FFF70AFF71
:10A7C0000028F3D010BD00BF5B4B002008B500226D
:10A7D0001146104600F07CFA00F018FA4FF416709B
:10A7E000FFF7F8FE00F0A4FA00F010FA4FF49670AC
:10A7F000FFF7F0FE00F09CFA00F008FA4FF49670B4
:10A80000FFF7E8FE00221046114600F061FA00F062
:10A81000FDF94FF41670FFF7DDFE0028D7D008BD14
:10A82000094B0A4A1B68B3FBF2F3013BB3F1807F8B
:10A83000FCD2074A5360074BE02183F82310002322
:10A840009360072313607047102B0020A08601003F
:10A8500010E000E000ED00E0034B1A6812B11A6846
:10A86000013A1A60704700BF38430020034B64224E
:10A870001A601A68002AFCD1704700BF38430020D4
:10A8800008B510F1FF3000D208BDFFF7EFFFF8E781
:10A8900010F0800F18BF1D2070470000034A0023EE
:10A8A0001370034A1380034A137070473C4300201F
:10A8B0003E4300203D430020F8B54D4E4D4D01462E
:10A8C00004460222304602F03CFA00234A49B370A3
:10A8D000204602F0B4FA10B902232B7049E0474930
:10A8E000204602F0ACFA08B90123F6E744492046B5
:10A8F00002F0A5FA08B90323EFE74249204602F027
:10A900009EFA08B90523E8E73F49204602F097FA86
:10A9100008B90623E1E73D49204602F090FA08B95C
:10A920000723DAE73A49304602F089FA0746002859
:10A930003CD10823A11C012236482B7002F001FAF9
:10A9400030493448777002F07AFA98B9324B0122D4
:10A950001A70324E012333700327204602F096FA14
:10A96000B8421AD83378FBB1E01C02F0DAF92C4B6C
:10A970001880F8BD2449274802F061FA10B9264B27
:10A980000222E5E72149234802F059FA10B9224B87
:10A990000322DDE700232B70DBE7E05D02F082F8A5
:10A9A00000B930700137D8E7002396E7204602F05F
:10A9B0006DFA4028F8D10923184E2B70012333700B
:10A9C0000327204602F062FAB84209D83378002BF8
:10A9D000EAD0214640221348BDE8F84002F0B1B960
:10A9E000E05D02F05FF800B930700137E9E700BFC1
:10A9F000434300203C430020C1DF0200C4DF0200CB
:10AA0000C8DF02009FDF020042DD0200E5DB02003A
:10AA1000CDDF0200414300203D43002040430020A1
:10AA20003E4300204643002070B5534E3378013B2F
:10AA3000082B0CD8DFE803F069050E0B70787C80DA
:10AA400098004FF0A0434FF40042C3F808250023BC
:10AA5000337070BD4FF0A0444FF400454FF47A704E
:10AA6000C4F80C55FFF70CFF4FF47A70C4F8085582
:10AA7000FFF706FF4FF47A70C4F80C55FFF700FF9C
:10AA80004FF47A70C4F80855FFF7FAFE4FF47A7065
:10AA9000C4F80C55FFF7F4FE4FF47A70C4F808556B
:10AAA000FFF7EEFE4FF47A70C4F80C55FFF7E8FE9E
:10AAB0004FF47A70C4F80855FFF7E2FE4FF47A704D
:10AAC000C4F80C55FFF7DCFE4FF47A70C4F8085553
:10AAD000FFF7D6FE4FF47A70C4F80C55FFF7D0FE9E
:10AAE0004FF47A70C4F80855FFF7CAFE4FF47A7035
:10AAF000C4F80C55FFF7C4FEC4F808554FF47A703B
:10AB0000FFF7BEFEC4F80C55A1E74FF0A0434FF489
:10AB10000042C3F80C259AE700221146802000F07D
:10AB2000D7F800F073F892E7002280211046F6E78C
:10AB3000002180220846F2E7104B1B78012B07D139
:10AB400000231A4680210E48008800F0E3F8E8E769
:10AB5000022B03D1002380221946F4E7032BE0D116
:10AB6000002280231146EEE700228023114605488B
:10AB700000F00CF9D5E700BF3C4300203D43002026
:10AB80003E430020464300202DE9F0410E4FDFF800
:10AB90003C8004464618A64201D1BDE8F0812078E9
:10ABA000FCF774FD054660B11128F8D03888000420
:10ABB00040F001002A464146FBF7D4FE2846FCF748
:10ABC00063F90134E7E700BFB02A002071DF02001B
:10ABD000014B01221A7070475A48002030B585B0E9
:10ABE0000025094C0293CDE900129DF82030257014
:10ABF0002A46694604300393FEF70CFE23780BB116
:10AC000005B030BD20BFF9E75A48002073B50024D5
:10AC10000B4D264629460096002380220948013420
:10AC2000FFF7DCFF082C05F18005F3D10096002327
:10AC3000142205490348FFF7D1FF02B070BD00BFE1
:10AC400046440020E0DF0200464800200E4B002270
:10AC500010B501211A705A709A70DA70E12440F22E
:10AC60000110013181421C715A719A71DA7103F13C
:10AC70000403F6D1054A1023FF21013B9BB202F8E1
:10AC8000011B002BF9D110BD464400204A4800208A
:10AC90001FB50C4B0FCB6C4684E80F0041F211231B
:10ACA000ADF80030084A094800232146FEF768FC49
:10ACB00008B1FCF7E9F8FFF7C9FFFFF7A7FF04B0F9
:10ACC00010BD00BFD0DF0200D1AB0200E0DF020008
:10ACD000064B10B500240134B4F5807F587199718A
:10ACE000DA7103F10403F6D110BD00BF4644002021
:10ACF0007F2805D800F00F03000900EBC300704760
:10AD0000803880B20309803300F00F0003EBC000ED
:10AD10007047000010B51C46FFF7EAFF431C0348CC
:10AD200000EB830041708270C47010BD4644002067
:10AD300000222DE9F04111466420FFF7C9FF114CB4
:10AD4000114F002215464FF0FF0834F8026B002126
:10AD500046FA01F3DB070AD5501880B2FFF7C8FFA7
:10AD6000013007EB80004570857080F80380013169
:10AD70001029EDD1103292B2B2F5807FE5D1BDE855
:10AD8000F08100BF482F0020464400202DE9F84301
:10AD90000024104D804699462646A0B2FFF7A8FF32
:10ADA000013018F804C08000431C871C0330BCF13C
:10ADB000310F04F101040BBFE954EE54EA55EE558E
:10ADC0000CBF05F800902E54B4F5807FE5D1BDE8A6
:10ADD000F88300BF464400202DE9F84304460D46A1
:10ADE00016469DF824109DF828209DF82000DFF8D5
:10ADF00044901F46FFF76CFF0022002102F140083B
:10AE000023880B41DB070AD508EB010080B2FFF76E
:10AE10006FFF013009EB800045708670C77001310B
:10AE20001029EDD1103292B2802A04F10204E4D14B
:10AE3000BDE8F8834644002010B50A4C01460022C4
:10AE400090B2FFF755FF013004EB80008B78437020
:10AE50004B788370013211F8033BC370B2F5807FE9
:10AE6000EED110BD4644002030B50B484FF4FF63CF
:10AE7000C3F5FF64C3F3C705C4F3C704024600214A
:10AE8000013110291570547002F10302F8D1FF3B13
:10AE900000F13000ECD130BD5B480020F8B54FF434
:10AEA000407200211548164E144F01F073FF002424
:10AEB000092501F0BFFE90FBF5F303EBC303C01AB5
:10AEC000C0B232193B1900215FFA81FC6045A2F142
:10AED0003002A3F1300303D80334302CE9D1F8BD9C
:10AEE00092F880C183F880C192F881C183F881C152
:10AEF00092F882C183F882C10131E5E75B4B002003
:10AF00005B4800200369C1688B429DBF8268D218EC
:10AF100002F1FF3203F1FF3394BF501A581A704701
:10AF20002DE9F041D0E9027405463E1B4068964287
:10AF300020448846144404D901F003FFEC60BDE8C6
:10AF4000F0813246E41B01F0FCFE224608EB0601CC
:10AF50006868F1E72DE9F843C56806468946174653
:10AF60004FF000083469B3687068A54228BFE41840
:10AF7000013C621B5C1BBC4228BF3C46944228BF7C
:10AF8000144649462844224601F0DBFEB3682544B6
:10AF9000AB4208BF00253F1BA044A144F560E1D1AE
:10AFA0004046BDE8F883000010B5114C114AA2617B
:10AFB0000223C4E90433104BE361A2644FF400732D
:10AFC0000E4A2362E264002310220D49A362E01DB1
:10AFD0006362E362A3656365E365226501F00DFFCB
:10AFE0000849204601F009FF2023A37110BD00BFCE
:10AFF0005C4E0020F0DF0200E44E0020D44E002022
:10B00000F9DF0200FDDF0200F8B5184C182300FB41
:10B01000033503FB00402544C46A012C0F46164645
:10B0200011D024B1022C1BD000242046F8BD2846A4
:10B03000FFF768FFB042F8D3324639462846FFF79B
:10B040006FFF3446F1E72846FFF75CFF864234463F
:10B0500028BF0446224639462846FFF761FFE4E749
:10B060002846BDE8F840FFF775BF00BF5C4E0020E2
:10B07000FFF79ABF6DDF704779DF70477DDF70475C
:10B0800064DF70472DE9F74F0C9CBDF834B027887A
:10B09000002580468A4691462E46B8F80020B242E6
:10B0A0000BDC35B12288013AD21B92B2FF2A39D883
:10B0B000DA55002003B0BDE8F08FD8F8042052F82C
:10B0C0002600019000220DF1030101A8FFF7D8FF2F
:10B0D0000028EFD19DF803204A4521D12288002D78
:10B0E00014BF0020022002EB09010144594519DC7C
:10B0F0003DB9013292B2228003F802A022880132C7
:10B10000228022880DF103011A4401A8FFF7B8FF3D
:10B110000028CFD121889DF803200A4422800125F0
:10B120000136BAE70C20C5E72DE9F341089CBDF8CC
:10B1300024501746CDE9004502220646FFF7A2FF3C
:10B1400048B9102239463046CDE9084502B0BDE87D
:10B15000F041FFF797BF02B0BDE8F0812DE9F04F55
:10B1600000231688138090F82D3085B007460D46D1
:10B17000144653B3082E01D80C2007E102A8FFF7AC
:10B1800079FF002840F0028113880822CA542388DE
:10B1900001339BB21B222380CA542088013080B225
:10B1A000208006220DF10901284401F0CAFD238800
:10B1B0009DF8082006339BB212F0FE0218BF012250
:10B1C0002380EA54238801332380BB78FBB1238892
:10B1D0000433B342D0D802A8FFF74EFF002840F056
:10B1E000D58023880322EA54238801339BB2192295
:10B1F0002380EA542388BDF8082001339BB2E91864
:10B200002380EA54120A4A70238802332380FA7892
:10B210009AB12388D91CB142AED80221E9542388BF
:10B2200001339BB201212380E95423880B449BB254
:10B230002380EA5423880B4423807A68AAB12388A8
:10B24000D91CB14298D8022192F90020E9542388F0
:10B2500001339BB20A212380E954238801339BB236
:10B260002380EA542388013323803B89002B40F05C
:10B2700081803B8A53B1CDE900462B46072203214A
:10B2800007F11000FFF750FF00287FD13B8B53B12F
:10B29000CDE900462B461522142107F11800FFF7CF
:10B2A00043FF002872D13A6A002A72D1D7F824806D
:10B2B000B8F1000F30D0B8F804302188981C8A1CEF
:10B2C0000244B2423FF658AFFE283FF655AF033373
:10B2D0006B54238801339BB2FF222380EA542388D6
:10B2E00001339BB22380B8F80020EA54E918120A0F
:10B2F0004A702088023080B22080B8F804205AB109
:10B30000D8F8081000294ED0284401F01AFD2388EF
:10B31000B8F804201344238097F82C30002B7DD1FB
:10B32000387898B33B88012B3DD0228802F1020C7B
:10B33000B4453FF621AF012805D17B780233134491
:10B340009E42FFF419AF023EB61AB6B202A905EB4F
:10B350000C00ADF80860FFF791FEB8B93B78022BFE
:10B3600040F09F80BDF80830B34240F2B680ADF89F
:10B3700008609FE0CDE900462B460622022107F136
:10B380000800FFF7D1FE00283FF473AF05B0BDE819
:10B39000F08FB4F800C00CF10603B3423FF6ECAEF8
:10B3A0001188052901D80720F0E76FF4486E01EBFA
:10B3B0000E039BB24FF27D3E7345F4D95388052BA3
:10B3C000F1D96FF44860181880B27045EBD94FF688
:10B3D000FF70814203D0834201D09942E3D8052314
:10B3E00005F80C30238801339BB212212380E954E5
:10B3F000238801339BB223801188E954E818090A95
:10B400004170238802339BB223805288EA54E918A2
:10B41000120A4A7023880233238047E7BB6A002B55
:10B42000C1D04FF000094FF00C0A4FF0160B97F8FF
:10B430002C305FFA89F293427FF672AFB96A0AFB49
:10B4400002F201EB0208B8F80430981CFE283FF61F
:10B4500093AE208803332B54238801339BB223807F
:10B4600005F803B0238801339BB223808A5AEA543B
:10B47000E918120A4A702088023080B22080B8F899
:10B4800004205AB1D8F8081000298CD0284401F0C3
:10B4900058FC2388B8F804201344238009F10109DB
:10B4A000C5E7012B7FF463AF7B789E42FFF45FAF6B
:10B4B000ADF808300821BDF80830FE2B3FF65CAE31
:10B4C00022880133AB542288013292B22280A954DF
:10B4D000228813442380002058E70921EBE770B548
:10B4E000C0B14AB116880024B44203D305196D785F
:10B4F0009D4208D0A14201D800200BE0055D013536
:10B500002C44A4B2F0E7A142F6D9A31C1380005D3D
:10B51000013880B270BD13B50023ADF80630134674
:10B520000DF106020446FFF7DAFF10B1BDF8060080
:10B53000204402B010BD72DF704773DF704774DFC4
:10B54000704738B5012204460D46B0F89810D0F87F
:10B550009400FFF7E0FF00B1057004F13C0204F134
:10B56000940104F15400BDE83840FFF7E4BF80F8CF
:10B5700030107047F8B504460F46002968D00028FF
:10B5800066D091F87A301BB191F89830002B61D1D8
:10B59000D7F8A030042B5DD0D7F89C30042B59D0BD
:10B5A00007F178060FCE4FF0000C251D84F802C07D
:10B5B0000FC50FCE0FC596E8070085E8070084F891
:10B5C00030C0D7F8A4306363D7F8A830A3634FF630
:10B5D000FF7504F19403C4F8A430A4F8A85007221E
:10B5E000614604F1AA0001F0D5FB23780BB984F879
:10B5F0005450224604F155011F25C4F894103846D2
:10B6000022F8985FFFF7AAFD08BB224604F17401F7
:10B61000C4F89C1007F13C0022F8A05FFFF79EFDE4
:10B62000A8B9A369A4F848304FF480720123A4F8A4
:10B630005020626920646264014684F83C3004F161
:10B640003C0204F15400FFF776FF00B92370F8BD07
:10B650000E20FCE70720FAE7F8B5077804460D4608
:10B66000002F00F00D81A1700020FCF721FB0146A6
:10B6700018B1012363700020F8BD04F1AA06072267
:10B68000304601F087FBE38813B1A378012B04D087
:10B69000E3794BB1A378022B06D1636BA3B10122EE
:10B6A00084F8B12008209847334604F1B00113F81C
:10B6B000012F12B98B42FAD117466B1E032B52D8B9
:10B6C000DFE803F0050B0F1284F8B130ECE7A37943
:10B6D0001BB194F8243003B95FB9E3790BB1002FA3
:10B6E00043D1237A002B42D1637A002B0CBF002573
:10B6F0000425636BA570002B3BD0033D012D38D88A
:10B700006279002A35D094F8B22092BB84F8B42034
:10B71000012284F8B3200720984704F13C05182241
:10B720000021284601F036FBE36A94F82420581ED5
:10B730000121022828BF0B4684F83C1084F85130C0
:10B7400032B1884296BFA36A84F8521084F852300E
:10B75000A178002384F8503004291BD8DFE801F0D9
:10B760007A0D25385C000025C3E70225C1E70325D3
:10B77000BFE7002384F8B330CFE7C4F8A430C4E9AE
:10B7800010630223012284F83C30802384F83120A6
:10B79000A4F84830A378002B5FD1636B002B3FF4F3
:10B7A0006AAF94F83100984765E70223002A84F8CD
:10B7B000313014BF0723032384F83C302369A4F8F5
:10B7C00048300023C4F8A430E36826646364E1E7EA
:10B7D00063696364A369A4F8483012B1062384F84E
:10B7E0003C306379B3B194F8B2309BB994F8B4307B
:10B7F00083B1022384F8503004212046FFF7A1FED4
:10B800000028C7D1052384F8313004F19403C4F82B
:10B81000A430BFE70323F6E7E3696364236AA4F86F
:10B82000483012B1062384F83C30637983B194F830
:10B83000B2306BB994F8B43053B1022384F850306D
:10B8400004212046FFF77DFE0028A3D10623DAE776
:10B850000423D8E784F831309CE72A46D4F8A410B2
:10B8600004F15400FFF767FE00287FF405AF94F859
:10B87000301094F85400FFF760FE00288DD0FBE6EE
:10B880000820F9E60388112B10B50C460AD0262BA8
:10B890001FD0102B05D1C37B012B02D18388A1F8C7
:10B8A000A83010BD0022838881F8B220B1F8A8200A
:10B8B0009A42F6D10B79002BF3D101212046FFF7F4
:10B8C000CBFE0028EDD0A36B002BEAD0BDE81040E2
:10B8D0001847037A013B012BE3D88978052301310E
:10B8E000B1FBF3F303EB8303C91AC9B2E6E70238ED
:10B8F000012810B50C460DD84B785BB100234B7076
:10B9000020468978FFF7A8FE20B1A36B13B1BDE8EC
:10B910001040184710BD38B5044690F85400FFF7A2
:10B920000EFE012384F8B230002384F8B43084F88A
:10B93000503006212046FFF704FE054638B9A178AD
:10B940002046FFF789FE10B1A36B03B19847284644
:10B9500038BD75DF704776DF70477ADF70477BDF71
:10B9600070470000034B1A8882420CBF1846002023
:10B97000704700BF00510020024B9B6903B118477C
:10B98000704700BFE450002037B585B22846FFF766
:10B99000E9FF034670B1164C017A227B91420BD22B
:10B9A00000F10A012846FFF7D4FFE8B1112801D0C1
:10B9B000FFF7E2FF03B030BD237C0022027243B1E7
:10B9C0003B212846FFF7C7FF30F0080301D0FFF7FF
:10B9D000D3FF6369002BEDD000228DF80420ADF871
:10B9E000065001A89847E5E71A7A01321A72E1E792
:10B9F000E450002013B50B46497A0F4C024669B952
:10BA0000D4E901101C7A002C18BF01465868FBF7D6
:10BA100003FD08B1FFF7B0FF02B010BD002119729D
:10BA20006369002BF8D00121ADF806008DF80410F1
:10BA300001A89847F0E700BFE45000204B88028837
:10BA40009A4213D842889A4210D380888A8840F25A
:10BA5000F313984294BF031AC31A934206D800F214
:10BA6000F310904234BF002001207047002070473F
:10BA70000388112B70B5014648D002D8102B1ED078
:10BA800070BD122B52D0502BFAD12F4BC288DB89BC
:10BA90009A42F5D1038A022BF2D186883046FFF70D
:10BAA00061FF05460028EBD001F1120000F044F9D7
:10BAB00030BB6868FBF7F6FC0028E1D009E0C37BE7
:10BAC000012BDDD14FF6FF70FFF74CFF054620B983
